{
  "contractName": "GLXFactory",
  "abi": [
    {
      "anonymous": false,
      "inputs": [
        {
          "indexed": false,
          "internalType": "address",
          "name": "a",
          "type": "address"
        }
      ],
      "name": "Game",
      "type": "event"
    },
    {
      "anonymous": false,
      "inputs": [
        {
          "indexed": true,
          "internalType": "address",
          "name": "previousOwner",
          "type": "address"
        },
        {
          "indexed": true,
          "internalType": "address",
          "name": "newOwner",
          "type": "address"
        }
      ],
      "name": "OwnershipTransferred",
      "type": "event"
    },
    {
      "inputs": [
        {
          "internalType": "address",
          "name": "",
          "type": "address"
        }
      ],
      "name": "getGameExtToken",
      "outputs": [
        {
          "internalType": "address",
          "name": "",
          "type": "address"
        }
      ],
      "stateMutability": "view",
      "type": "function",
      "constant": true
    },
    {
      "inputs": [
        {
          "internalType": "address",
          "name": "",
          "type": "address"
        }
      ],
      "name": "getIntToken",
      "outputs": [
        {
          "internalType": "address",
          "name": "",
          "type": "address"
        }
      ],
      "stateMutability": "view",
      "type": "function",
      "constant": true
    },
    {
      "inputs": [
        {
          "internalType": "address",
          "name": "",
          "type": "address"
        }
      ],
      "name": "getLiquidPool",
      "outputs": [
        {
          "internalType": "address",
          "name": "",
          "type": "address"
        }
      ],
      "stateMutability": "view",
      "type": "function",
      "constant": true
    },
    {
      "inputs": [
        {
          "internalType": "address",
          "name": "",
          "type": "address"
        }
      ],
      "name": "getMintDiscount",
      "outputs": [
        {
          "internalType": "uint256",
          "name": "",
          "type": "uint256"
        }
      ],
      "stateMutability": "view",
      "type": "function",
      "constant": true
    },
    {
      "inputs": [],
      "name": "owner",
      "outputs": [
        {
          "internalType": "address",
          "name": "",
          "type": "address"
        }
      ],
      "stateMutability": "view",
      "type": "function",
      "constant": true
    },
    {
      "inputs": [],
      "name": "renounceOwnership",
      "outputs": [],
      "stateMutability": "nonpayable",
      "type": "function"
    },
    {
      "inputs": [
        {
          "internalType": "address",
          "name": "newOwner",
          "type": "address"
        }
      ],
      "name": "transferOwnership",
      "outputs": [],
      "stateMutability": "nonpayable",
      "type": "function"
    },
    {
      "inputs": [
        {
          "internalType": "address",
          "name": "router",
          "type": "address"
        },
        {
          "internalType": "address",
          "name": "extToken",
          "type": "address"
        },
        {
          "internalType": "address",
          "name": "intToken",
          "type": "address"
        },
        {
          "internalType": "address",
          "name": "finToken",
          "type": "address"
        },
        {
          "internalType": "address",
          "name": "liquidPool",
          "type": "address"
        },
        {
          "internalType": "uint256",
          "name": "startBlockNumber",
          "type": "uint256"
        },
        {
          "internalType": "uint256",
          "name": "endBlockNumber",
          "type": "uint256"
        },
        {
          "internalType": "bool",
          "name": "isOnChainGame",
          "type": "bool"
        },
        {
          "internalType": "address",
          "name": "gameObjectToken",
          "type": "address"
        },
        {
          "internalType": "uint256",
          "name": "gameObjectTokenSupply",
          "type": "uint256"
        }
      ],
      "name": "createGame",
      "outputs": [
        {
          "internalType": "address",
          "name": "game",
          "type": "address"
        }
      ],
      "stateMutability": "nonpayable",
      "type": "function"
    },
    {
      "inputs": [
        {
          "internalType": "address",
          "name": "intToken",
          "type": "address"
        },
        {
          "internalType": "uint256",
          "name": "mintDiscount",
          "type": "uint256"
        }
      ],
      "name": "setMintDiscount",
      "outputs": [
        {
          "internalType": "bool",
          "name": "",
          "type": "bool"
        }
      ],
      "stateMutability": "nonpayable",
      "type": "function"
    }
  ],
  "bytecode": "0x608060405260006100146100b760201b60201c565b9050806000806101000a81548173ffffffffffffffffffffffffffffffffffffffff021916908373ffffffffffffffffffffffffffffffffffffffff1602179055508073ffffffffffffffffffffffffffffffffffffffff16600073ffffffffffffffffffffffffffffffffffffffff167f8be0079c531659141344cd1fd0a4f28419497f9722a3daafe3b4186f6b6457e060405160405180910390a3506100bf565b600033905090565b6147d1806100ce6000396000f3fe608060405234801561001057600080fd5b50600436106100935760003560e01c8063715018a611610066578063715018a6146103295780638be62fba146103335780638da5cb5b146103b757806399715c3c14610401578063f2fde38b1461048557610093565b806320ac43c91461009857806323d9adb9146101e75780634b77f6351461024d5780636f4ca3af146102a5575b600080fd5b6101a560048036036101408110156100af57600080fd5b81019080803573ffffffffffffffffffffffffffffffffffffffff169060200190929190803573ffffffffffffffffffffffffffffffffffffffff169060200190929190803573ffffffffffffffffffffffffffffffffffffffff169060200190929190803573ffffffffffffffffffffffffffffffffffffffff169060200190929190803573ffffffffffffffffffffffffffffffffffffffff1690602001909291908035906020019092919080359060200190929190803515159060200190929190803573ffffffffffffffffffffffffffffffffffffffff169060200190929190803590602001909291905050506104c9565b604051808273ffffffffffffffffffffffffffffffffffffffff1673ffffffffffffffffffffffffffffffffffffffff16815260200191505060405180910390f35b610233600480360360408110156101fd57600080fd5b81019080803573ffffffffffffffffffffffffffffffffffffffff16906020019092919080359060200190929190505050610a4a565b604051808215151515815260200191505060405180910390f35b61028f6004803603602081101561026357600080fd5b81019080803573ffffffffffffffffffffffffffffffffffffffff169060200190929190505050610d9f565b6040518082815260200191505060405180910390f35b6102e7600480360360208110156102bb57600080fd5b81019080803573ffffffffffffffffffffffffffffffffffffffff169060200190929190505050610db7565b604051808273ffffffffffffffffffffffffffffffffffffffff1673ffffffffffffffffffffffffffffffffffffffff16815260200191505060405180910390f35b610331610dea565b005b6103756004803603602081101561034957600080fd5b81019080803573ffffffffffffffffffffffffffffffffffffffff169060200190929190505050610f72565b604051808273ffffffffffffffffffffffffffffffffffffffff1673ffffffffffffffffffffffffffffffffffffffff16815260200191505060405180910390f35b6103bf610fa5565b604051808273ffffffffffffffffffffffffffffffffffffffff1673ffffffffffffffffffffffffffffffffffffffff16815260200191505060405180910390f35b6104436004803603602081101561041757600080fd5b81019080803573ffffffffffffffffffffffffffffffffffffffff169060200190929190505050610fce565b604051808273ffffffffffffffffffffffffffffffffffffffff1673ffffffffffffffffffffffffffffffffffffffff16815260200191505060405180910390f35b6104c76004803603602081101561049b57600080fd5b81019080803573ffffffffffffffffffffffffffffffffffffffff169060200190929190505050611001565b005b60006104d361120e565b73ffffffffffffffffffffffffffffffffffffffff166000809054906101000a900473ffffffffffffffffffffffffffffffffffffffff1673ffffffffffffffffffffffffffffffffffffffff1614610594576040517f08c379a00000000000000000000000000000000000000000000000000000000081526004018080602001828103825260208152602001807f4f776e61626c653a2063616c6c6572206973206e6f7420746865206f776e657281525060200191505060405180910390fd5b600073ffffffffffffffffffffffffffffffffffffffff168a73ffffffffffffffffffffffffffffffffffffffff161415610637576040517f08c379a00000000000000000000000000000000000000000000000000000000081526004018080602001828103825260198152602001807f474c58466163746f72793a20544f4b454e5f494e56414c49440000000000000081525060200191505060405180910390fd5b600073ffffffffffffffffffffffffffffffffffffffff168973ffffffffffffffffffffffffffffffffffffffff1614156106da576040517f08c379a00000000000000000000000000000000000000000000000000000000081526004018080602001828103825260198152602001807f474c58466163746f72793a20544f4b454e5f494e56414c49440000000000000081525060200191505060405180910390fd5b6106eb8b8b8b8b8a8a8a8a8a611216565b905089600160008373ffffffffffffffffffffffffffffffffffffffff1673ffffffffffffffffffffffffffffffffffffffff16815260200190815260200160002060006101000a81548173ffffffffffffffffffffffffffffffffffffffff021916908373ffffffffffffffffffffffffffffffffffffffff160217905550600073ffffffffffffffffffffffffffffffffffffffff16600260008c73ffffffffffffffffffffffffffffffffffffffff1673ffffffffffffffffffffffffffffffffffffffff16815260200190815260200160002060009054906101000a900473ffffffffffffffffffffffffffffffffffffffff1673ffffffffffffffffffffffffffffffffffffffff16141561087e5788600260008c73ffffffffffffffffffffffffffffffffffffffff1673ffffffffffffffffffffffffffffffffffffffff16815260200190815260200160002060006101000a81548173ffffffffffffffffffffffffffffffffffffffff021916908373ffffffffffffffffffffffffffffffffffffffff1602179055505b600073ffffffffffffffffffffffffffffffffffffffff16600360008b73ffffffffffffffffffffffffffffffffffffffff1673ffffffffffffffffffffffffffffffffffffffff16815260200190815260200160002060009054906101000a900473ffffffffffffffffffffffffffffffffffffffff1673ffffffffffffffffffffffffffffffffffffffff1614156109d65786600360008b73ffffffffffffffffffffffffffffffffffffffff1673ffffffffffffffffffffffffffffffffffffffff16815260200190815260200160002060006101000a81548173ffffffffffffffffffffffffffffffffffffffff021916908373ffffffffffffffffffffffffffffffffffffffff1602179055506001600460008b73ffffffffffffffffffffffffffffffffffffffff1673ffffffffffffffffffffffffffffffffffffffff168152602001908152602001600020819055505b7fcf2b16d9d9a6ab778996095754ddeb6cd4b3fd7ef34cee35dc84fdd97ea7238581604051808273ffffffffffffffffffffffffffffffffffffffff1673ffffffffffffffffffffffffffffffffffffffff16815260200191505060405180910390a18090509a9950505050505050505050565b6000610a5461120e565b73ffffffffffffffffffffffffffffffffffffffff166000809054906101000a900473ffffffffffffffffffffffffffffffffffffffff1673ffffffffffffffffffffffffffffffffffffffff1614610b15576040517f08c379a00000000000000000000000000000000000000000000000000000000081526004018080602001828103825260208152602001807f4f776e61626c653a2063616c6c6572206973206e6f7420746865206f776e657281525060200191505060405180910390fd5b600073ffffffffffffffffffffffffffffffffffffffff168373ffffffffffffffffffffffffffffffffffffffff161415610bb8576040517f08c379a000000000000000000000000000000000000000000000000000000000815260040180806020018281038252601d8152602001807f474c58466163746f72793a20494e545f544f4b454e5f494e56414c494400000081525060200191505060405180910390fd5b600073ffffffffffffffffffffffffffffffffffffffff16600360008573ffffffffffffffffffffffffffffffffffffffff1673ffffffffffffffffffffffffffffffffffffffff16815260200190815260200160002060009054906101000a900473ffffffffffffffffffffffffffffffffffffffff1673ffffffffffffffffffffffffffffffffffffffff161415610cba576040517f08c379a000000000000000000000000000000000000000000000000000000000815260040180806020018281038252601f8152602001807f474c58466163746f72793a20494e545f544f4b454e5f4e4f545f45584953540081525060200191505060405180910390fd5b81600460008573ffffffffffffffffffffffffffffffffffffffff1673ffffffffffffffffffffffffffffffffffffffff1681526020019081526020016000205410610d51576040517f08c379a000000000000000000000000000000000000000000000000000000000815260040180806020018281038252602281526020018061477a6022913960400191505060405180910390fd5b81600460008573ffffffffffffffffffffffffffffffffffffffff1673ffffffffffffffffffffffffffffffffffffffff168152602001908152602001600020819055506001905092915050565b60046020528060005260406000206000915090505481565b60026020528060005260406000206000915054906101000a900473ffffffffffffffffffffffffffffffffffffffff1681565b610df261120e565b73ffffffffffffffffffffffffffffffffffffffff166000809054906101000a900473ffffffffffffffffffffffffffffffffffffffff1673ffffffffffffffffffffffffffffffffffffffff1614610eb3576040517f08c379a00000000000000000000000000000000000000000000000000000000081526004018080602001828103825260208152602001807f4f776e61626c653a2063616c6c6572206973206e6f7420746865206f776e657281525060200191505060405180910390fd5b600073ffffffffffffffffffffffffffffffffffffffff166000809054906101000a900473ffffffffffffffffffffffffffffffffffffffff1673ffffffffffffffffffffffffffffffffffffffff167f8be0079c531659141344cd1fd0a4f28419497f9722a3daafe3b4186f6b6457e060405160405180910390a360008060006101000a81548173ffffffffffffffffffffffffffffffffffffffff021916908373ffffffffffffffffffffffffffffffffffffffff160217905550565b60016020528060005260406000206000915054906101000a900473ffffffffffffffffffffffffffffffffffffffff1681565b60008060009054906101000a900473ffffffffffffffffffffffffffffffffffffffff16905090565b60036020528060005260406000206000915054906101000a900473ffffffffffffffffffffffffffffffffffffffff1681565b61100961120e565b73ffffffffffffffffffffffffffffffffffffffff166000809054906101000a900473ffffffffffffffffffffffffffffffffffffffff1673ffffffffffffffffffffffffffffffffffffffff16146110ca576040517f08c379a00000000000000000000000000000000000000000000000000000000081526004018080602001828103825260208152602001807f4f776e61626c653a2063616c6c6572206973206e6f7420746865206f776e657281525060200191505060405180910390fd5b600073ffffffffffffffffffffffffffffffffffffffff168173ffffffffffffffffffffffffffffffffffffffff161415611150576040517f08c379a00000000000000000000000000000000000000000000000000000000081526004018080602001828103825260268152602001806147546026913960400191505060405180910390fd5b8073ffffffffffffffffffffffffffffffffffffffff166000809054906101000a900473ffffffffffffffffffffffffffffffffffffffff1673ffffffffffffffffffffffffffffffffffffffff167f8be0079c531659141344cd1fd0a4f28419497f9722a3daafe3b4186f6b6457e060405160405180910390a3806000806101000a81548173ffffffffffffffffffffffffffffffffffffffff021916908373ffffffffffffffffffffffffffffffffffffffff16021790555050565b600033905090565b600060606040518060200161122a90611414565b6020820181038252601f19601f82011660405250905060008760405160200180828152602001915050604051602081830303815290604052805190602001209050808251602084016000f592508273ffffffffffffffffffffffffffffffffffffffff16638f47ac718d8d8d8d8d8d8d8d8d6040518a63ffffffff1660e01b8152600401808a73ffffffffffffffffffffffffffffffffffffffff1673ffffffffffffffffffffffffffffffffffffffff1681526020018973ffffffffffffffffffffffffffffffffffffffff1673ffffffffffffffffffffffffffffffffffffffff1681526020018873ffffffffffffffffffffffffffffffffffffffff1673ffffffffffffffffffffffffffffffffffffffff1681526020018773ffffffffffffffffffffffffffffffffffffffff1673ffffffffffffffffffffffffffffffffffffffff168152602001868152602001858152602001841515151581526020018373ffffffffffffffffffffffffffffffffffffffff1673ffffffffffffffffffffffffffffffffffffffff1681526020018281526020019950505050505050505050600060405180830381600087803b1580156113ea57600080fd5b505af11580156113fe573d6000803e3d6000fd5b5050505082925050509998505050505050505050565b613332806114228339019056fe60806040526001601660006101000a81548160ff021916908360ff16021790555034801561002c57600080fd5b5033600260006101000a81548173ffffffffffffffffffffffffffffffffffffffff021916908373ffffffffffffffffffffffffffffffffffffffff1602179055506132b58061007d6000396000f3fe608060405234801561001057600080fd5b50600436106102115760003560e01c80637152f80011610125578063d0c122d2116100ad578063ea0610381161007c578063ea061038146108d6578063ec4bbf7714610920578063ef7128fe1461093e578063f5da8b821461095c578063f887ea40146109b457610211565b8063d0c122d2146107a4578063d84ce2d9146107c2578063e30fd4401461080c578063e43cceb61461086457610211565b8063a4fd6f56116100f4578063a4fd6f56146106af578063a8f8d9df146106d1578063b4999e85146106f3578063c45a015514610711578063caa9aa701461075b57610211565b80637152f800146105625780638b6707b4146105845780638f47ac71146105a2578063a4104bc71461069157610211565b8063498a4c2d116101a85780635f48f393116101775780635f48f3931461049c5780636007b239146104ba578063605ee8eb146104dc578063606c7db0146104fa57806369ee9fee1461054457610211565b8063498a4c2d1461041c5780634d830d6f1461043a578063544736e6146104585780635d2ad4e81461047a57610211565b80633bb51ee4116101e45780633bb51ee4146102fc5780633cb7e012146103465780633d83e5d7146103a257806346378f0c146103c057610211565b80630145584b146102165780630b246c5414610272578063143c24de146102945780631df4111b146102b2575b600080fd5b6102586004803603602081101561022c57600080fd5b81019080803573ffffffffffffffffffffffffffffffffffffffff1690602001909291905050506109fe565b604051808215151515815260200191505060405180910390f35b61027a61119d565b604051808215151515815260200191505060405180910390f35b61029c6111b0565b6040518082815260200191505060405180910390f35b6102ba6111b6565b604051808273ffffffffffffffffffffffffffffffffffffffff1673ffffffffffffffffffffffffffffffffffffffff16815260200191505060405180910390f35b6103046111dc565b604051808273ffffffffffffffffffffffffffffffffffffffff1673ffffffffffffffffffffffffffffffffffffffff16815260200191505060405180910390f35b6103886004803603602081101561035c57600080fd5b81019080803573ffffffffffffffffffffffffffffffffffffffff169060200190929190505050611202565b604051808215151515815260200191505060405180910390f35b6103aa611222565b6040518082815260200191505060405180910390f35b610402600480360360208110156103d657600080fd5b81019080803573ffffffffffffffffffffffffffffffffffffffff169060200190929190505050611228565b604051808215151515815260200191505060405180910390f35b61042461146a565b6040518082815260200191505060405180910390f35b610442611470565b6040518082815260200191505060405180910390f35b61046061148e565b604051808215151515815260200191505060405180910390f35b6104826114a9565b604051808215151515815260200191505060405180910390f35b6104a461180a565b6040518082815260200191505060405180910390f35b6104c2611810565b604051808215151515815260200191505060405180910390f35b6104e4611823565b6040518082815260200191505060405180910390f35b610502611829565b604051808273ffffffffffffffffffffffffffffffffffffffff1673ffffffffffffffffffffffffffffffffffffffff16815260200191505060405180910390f35b61054c61184f565b6040518082815260200191505060405180910390f35b61056a611855565b604051808215151515815260200191505060405180910390f35b61058c611868565b6040518082815260200191505060405180910390f35b61068f60048036036101208110156105b957600080fd5b81019080803573ffffffffffffffffffffffffffffffffffffffff169060200190929190803573ffffffffffffffffffffffffffffffffffffffff169060200190929190803573ffffffffffffffffffffffffffffffffffffffff169060200190929190803573ffffffffffffffffffffffffffffffffffffffff1690602001909291908035906020019092919080359060200190929190803515159060200190929190803573ffffffffffffffffffffffffffffffffffffffff1690602001909291908035906020019092919050505061186e565b005b610699611aac565b6040518082815260200191505060405180910390f35b6106b7611ab2565b604051808215151515815260200191505060405180910390f35b6106d9611acf565b604051808215151515815260200191505060405180910390f35b6106fb611b0b565b6040518082815260200191505060405180910390f35b610719611b11565b604051808273ffffffffffffffffffffffffffffffffffffffff1673ffffffffffffffffffffffffffffffffffffffff16815260200191505060405180910390f35b61078a6004803603602081101561077157600080fd5b81019080803560ff169060200190929190505050611b37565b604051808215151515815260200191505060405180910390f35b6107ac611f57565b6040518082815260200191505060405180910390f35b6107ca611f5c565b604051808273ffffffffffffffffffffffffffffffffffffffff1673ffffffffffffffffffffffffffffffffffffffff16815260200191505060405180910390f35b61084e6004803603602081101561082257600080fd5b81019080803573ffffffffffffffffffffffffffffffffffffffff169060200190929190505050611f82565b6040518082815260200191505060405180910390f35b6108bc6004803603606081101561087a57600080fd5b81019080803573ffffffffffffffffffffffffffffffffffffffff16906020019092919080351515906020019092919080359060200190929190505050611f9a565b604051808215151515815260200191505060405180910390f35b6108de6127b2565b604051808273ffffffffffffffffffffffffffffffffffffffff1673ffffffffffffffffffffffffffffffffffffffff16815260200191505060405180910390f35b6109286127d8565b6040518082815260200191505060405180910390f35b6109466127de565b6040518082815260200191505060405180910390f35b61099e6004803603602081101561097257600080fd5b81019080803573ffffffffffffffffffffffffffffffffffffffff1690602001909291905050506127e4565b6040518082815260200191505060405180910390f35b6109bc6127fc565b604051808273ffffffffffffffffffffffffffffffffffffffff1673ffffffffffffffffffffffffffffffffffffffff16815260200191505060405180910390f35b60006001601660009054906101000a900460ff1660ff1614610a88576040517f08c379a000000000000000000000000000000000000000000000000000000000815260040180806020018281038252600f8152602001807f474c5847616d653a204c4f434b4544000000000000000000000000000000000081525060200191505060405180910390fd5b6000601660006101000a81548160ff021916908360ff160217905550610aac611acf565b610b1e576040517f08c379a00000000000000000000000000000000000000000000000000000000081526004018080602001828103825260188152602001807f474c5847616d653a204e4f545f43414e5f52454345495645000000000000000081525060200191505060405180910390fd5b600073ffffffffffffffffffffffffffffffffffffffff168273ffffffffffffffffffffffffffffffffffffffff161415610bc1576040517f08c379a000000000000000000000000000000000000000000000000000000000815260040180806020018281038252601d8152602001807f474c5847616d653a20524543454956455f414444524553535f5a45524f00000081525060200191505060405180910390fd5b601060008373ffffffffffffffffffffffffffffffffffffffff1673ffffffffffffffffffffffffffffffffffffffff16815260200190815260200160002060009054906101000a900460ff1615610c81576040517f08c379a00000000000000000000000000000000000000000000000000000000081526004018080602001828103825260118152602001807f474c5847616d653a20524543454956454400000000000000000000000000000081525060200191505060405180910390fd5b600660159054906101000a900460ff16610ce6576040517f08c379a00000000000000000000000000000000000000000000000000000000081526004018080602001828103825260228152602001806131f46022913960400191505060405180910390fd5b6000600a54141580610cfb57506000600b5414155b610d6d576040517f08c379a00000000000000000000000000000000000000000000000000000000081526004018080602001828103825260138152602001807f474c5847616d653a204e4f424f44595f4245540000000000000000000000000081525060200191505060405180910390fd5b6000809050600960009054906101000a900460ff1615610ed1576000600e60008573ffffffffffffffffffffffffffffffffffffffff1673ffffffffffffffffffffffffffffffffffffffff168152602001908152602001600020541115610e2457610e1d600e60008573ffffffffffffffffffffffffffffffffffffffff1673ffffffffffffffffffffffffffffffffffffffff16815260200190815260200160002054600a54601554612822565b9050610ecc565b6000600a54148015610e7557506000600f60008573ffffffffffffffffffffffffffffffffffffffff1673ffffffffffffffffffffffffffffffffffffffff16815260200190815260200160002054115b15610ecb57610ec8600f60008573ffffffffffffffffffffffffffffffffffffffff1673ffffffffffffffffffffffffffffffffffffffff16815260200190815260200160002054600b54601554612822565b90505b5b611017565b6000600f60008573ffffffffffffffffffffffffffffffffffffffff1673ffffffffffffffffffffffffffffffffffffffff168152602001908152602001600020541115610f6e57610f67600f60008573ffffffffffffffffffffffffffffffffffffffff1673ffffffffffffffffffffffffffffffffffffffff16815260200190815260200160002054600b54601554612822565b9050611016565b6000600b54148015610fbf57506000600e60008573ffffffffffffffffffffffffffffffffffffffff1673ffffffffffffffffffffffffffffffffffffffff16815260200190815260200160002054115b1561101557611012600e60008573ffffffffffffffffffffffffffffffffffffffff1673ffffffffffffffffffffffffffffffffffffffff16815260200190815260200160002054600a54601554612822565b90505b5b5b601260009054906101000a900473ffffffffffffffffffffffffffffffffffffffff1673ffffffffffffffffffffffffffffffffffffffff168373ffffffffffffffffffffffffffffffffffffffff161415611085576110826013548261286990919063ffffffff16565b90505b6000811115611114576110bb600460009054906101000a900473ffffffffffffffffffffffffffffffffffffffff1684836128f1565b6001601060008573ffffffffffffffffffffffffffffffffffffffff1673ffffffffffffffffffffffffffffffffffffffff16815260200190815260200160002060006101000a81548160ff0219169083151502179055505b7f96c637b32857e341c944dc5ccd0915e732ef882cc0b34070d3c715f89cfff69d83604051808273ffffffffffffffffffffffffffffffffffffffff1673ffffffffffffffffffffffffffffffffffffffff16815260200191505060405180910390a160019150506001601660006101000a81548160ff021916908360ff160217905550919050565b600660149054906101000a900460ff1681565b600d5481565b600660009054906101000a900473ffffffffffffffffffffffffffffffffffffffff1681565b600460009054906101000a900473ffffffffffffffffffffffffffffffffffffffff1681565b60106020528060005260406000206000915054906101000a900460ff1681565b60085481565b6000611232611acf565b61123f5760009050611465565b6000600e60008473ffffffffffffffffffffffffffffffffffffffff1673ffffffffffffffffffffffffffffffffffffffff1681526020019081526020016000205411801561129a5750600960009054906101000a900460ff165b156112a85760019050611465565b6000600f60008473ffffffffffffffffffffffffffffffffffffffff1673ffffffffffffffffffffffffffffffffffffffff168152602001908152602001600020541180156113045750600960009054906101000a900460ff16155b156113125760019050611465565b6000600e60008473ffffffffffffffffffffffffffffffffffffffff1673ffffffffffffffffffffffffffffffffffffffff1681526020019081526020016000205411801561136e5750600960009054906101000a900460ff16155b801561137c57506000600b54145b1561138a5760019050611465565b6000600f60008473ffffffffffffffffffffffffffffffffffffffff1673ffffffffffffffffffffffffffffffffffffffff168152602001908152602001600020541180156113e55750600960009054906101000a900460ff165b80156113f357506000600a54145b156114015760019050611465565b601260009054906101000a900473ffffffffffffffffffffffffffffffffffffffff1673ffffffffffffffffffffffffffffffffffffffff168273ffffffffffffffffffffffffffffffffffffffff1614156114605760019050611465565b600090505b919050565b60005481565b6000611489600d54600c5461286990919063ffffffff16565b905090565b6000805443106114a157600190506114a6565b600090505b90565b60006001601660009054906101000a900460ff1660ff1614611533576040517f08c379a000000000000000000000000000000000000000000000000000000000815260040180806020018281038252600f8152602001807f474c5847616d653a204c4f434b4544000000000000000000000000000000000081525060200191505060405180910390fd5b6000601660006101000a81548160ff021916908360ff160217905550611557611ab2565b6115c9576040517f08c379a000000000000000000000000000000000000000000000000000000000815260040180806020018281038252600e8152602001807f456e643a206e6f7420656e64656400000000000000000000000000000000000081525060200191505060405180910390fd5b600660149054906101000a900460ff1661164b576040517f08c379a000000000000000000000000000000000000000000000000000000000815260040180806020018281038252601a8152602001807f474c5847616d653a204e4f545f4f4e5f434841494e5f47414d4500000000000081525060200191505060405180910390fd5b600660159054906101000a900460ff16156116b1576040517f08c379a00000000000000000000000000000000000000000000000000000000081526004018080602001828103825260218152602001806131af6021913960400191505060405180910390fd5b600854600760009054906101000a900473ffffffffffffffffffffffffffffffffffffffff1673ffffffffffffffffffffffffffffffffffffffff166318160ddd6040518163ffffffff1660e01b815260040160206040518083038186803b15801561171c57600080fd5b505afa158015611730573d6000803e3d6000fd5b505050506040513d602081101561174657600080fd5b81019080805190602001909291905050501061177c576001600960006101000a81548160ff021916908315150217905550611798565b6000600960006101000a81548160ff0219169083151502179055505b6117a0612aea565b6001600660156101000a81548160ff0219169083151502179055507fbe7f54e72ae083e2ce42f287bdd572a2c497ab588f9215719ed50557661ab4da60405160405180910390a1600190506001601660006101000a81548160ff021916908360ff16021790555090565b60115481565b600660159054906101000a900460ff1681565b600b5481565b600760009054906101000a900473ffffffffffffffffffffffffffffffffffffffff1681565b600a5481565b600960009054906101000a900460ff1681565b60135481565b600260009054906101000a900473ffffffffffffffffffffffffffffffffffffffff1673ffffffffffffffffffffffffffffffffffffffff163373ffffffffffffffffffffffffffffffffffffffff1614611931576040517f08c379a00000000000000000000000000000000000000000000000000000000081526004018080602001828103825260128152602001807f474c5847616d653a20464f5242494444454e000000000000000000000000000081525060200191505060405180910390fd5b88600360006101000a81548173ffffffffffffffffffffffffffffffffffffffff021916908373ffffffffffffffffffffffffffffffffffffffff16021790555087600460006101000a81548173ffffffffffffffffffffffffffffffffffffffff021916908373ffffffffffffffffffffffffffffffffffffffff16021790555086600560006101000a81548173ffffffffffffffffffffffffffffffffffffffff021916908373ffffffffffffffffffffffffffffffffffffffff16021790555085600660006101000a81548173ffffffffffffffffffffffffffffffffffffffff021916908373ffffffffffffffffffffffffffffffffffffffff160217905550611a3f8585612cd2565b82600660146101000a81548160ff02191690831515021790555081600760006101000a81548173ffffffffffffffffffffffffffffffffffffffff021916908373ffffffffffffffffffffffffffffffffffffffff16021790555080600881905550505050505050505050565b600c5481565b6000600154431115611ac75760019050611acc565b600090505b90565b6000611ad9611ab2565b611ae65760009050611b08565b600660159054906101000a900460ff16611b035760009050611b08565b600190505b90565b60015481565b600260009054906101000a900473ffffffffffffffffffffffffffffffffffffffff1681565b60006001601660009054906101000a900460ff1660ff1614611bc1576040517f08c379a000000000000000000000000000000000000000000000000000000000815260040180806020018281038252600f8152602001807f474c5847616d653a204c4f434b4544000000000000000000000000000000000081525060200191505060405180910390fd5b6000601660006101000a81548160ff021916908360ff160217905550600360009054906101000a900473ffffffffffffffffffffffffffffffffffffffff1673ffffffffffffffffffffffffffffffffffffffff163373ffffffffffffffffffffffffffffffffffffffff1614611ca0576040517f08c379a00000000000000000000000000000000000000000000000000000000081526004018080602001828103825260128152602001807f474c5847616d653a20464f5242494444454e000000000000000000000000000081525060200191505060405180910390fd5b611ca8611ab2565b611d1a576040517f08c379a000000000000000000000000000000000000000000000000000000000815260040180806020018281038252600e8152602001807f456e643a206e6f7420656e64656400000000000000000000000000000000000081525060200191505060405180910390fd5b600660149054906101000a900460ff1615611d9d576040517f08c379a000000000000000000000000000000000000000000000000000000000815260040180806020018281038252601b8152602001807f474c5847616d653a204e4f545f4f46465f434841494e5f47414d45000000000081525060200191505060405180910390fd5b600660159054906101000a900460ff1615611e03576040517f08c379a00000000000000000000000000000000000000000000000000000000081526004018080602001828103825260248152602001806131d06024913960400191505060405180910390fd5b60018260ff161480611e18575060028260ff16145b611e8a576040517f08c379a000000000000000000000000000000000000000000000000000000000815260040180806020018281038252601c8152602001807f474c5847616d653a2067616d65526573756c74e4b88de59088e6b3950000000081525060200191505060405180910390fd5b60018260ff161415611eb6576001600960006101000a81548160ff021916908315150217905550611ed2565b6001600960006101000a81548160ff0219169083151502179055505b611eda612aea565b6001600660156101000a81548160ff0219169083151502179055507f0bea59c101d3ac28bd55906d7a058230e2c2eccced5f70a6012e1a248df9050282604051808260ff1660ff16815260200191505060405180910390a1600190506001601660006101000a81548160ff021916908360ff160217905550919050565b600381565b601260009054906101000a900473ffffffffffffffffffffffffffffffffffffffff1681565b600f6020528060005260406000206000915090505481565b60006001601660009054906101000a900460ff1660ff1614612024576040517f08c379a000000000000000000000000000000000000000000000000000000000815260040180806020018281038252600f8152602001807f474c5847616d653a204c4f434b4544000000000000000000000000000000000081525060200191505060405180910390fd5b6000601660006101000a81548160ff021916908360ff16021790555061204861148e565b156120bb576040517f08c379a000000000000000000000000000000000000000000000000000000000815260040180806020018281038252600e8152602001807f53746172743a207374617274656400000000000000000000000000000000000081525060200191505060405180910390fd5b600360009054906101000a900473ffffffffffffffffffffffffffffffffffffffff1673ffffffffffffffffffffffffffffffffffffffff163373ffffffffffffffffffffffffffffffffffffffff161461217e576040517f08c379a00000000000000000000000000000000000000000000000000000000081526004018080602001828103825260128152602001807f474c5847616d653a20464f5242494444454e000000000000000000000000000081525060200191505060405180910390fd5b600073ffffffffffffffffffffffffffffffffffffffff168473ffffffffffffffffffffffffffffffffffffffff161415612221576040517f08c379a00000000000000000000000000000000000000000000000000000000081526004018080602001828103825260198152602001807f474c5847616d653a204245545f414444524553535f5a45524f0000000000000081525060200191505060405180910390fd5b60008211612297576040517f08c379a00000000000000000000000000000000000000000000000000000000081526004018080602001828103825260188152602001807f474c5847616d653a204245545f414d4f554e545f5a45524f000000000000000081525060200191505060405180910390fd5b821561243f576122b282600a5461286990919063ffffffff16565b600a819055506122ce6001600c5461286990919063ffffffff16565b600c8190555061232682600e60008773ffffffffffffffffffffffffffffffffffffffff1673ffffffffffffffffffffffffffffffffffffffff1681526020019081526020016000205461286990919063ffffffff16565b600e60008673ffffffffffffffffffffffffffffffffffffffff1673ffffffffffffffffffffffffffffffffffffffff16815260200190815260200160002081905550601154600e60008673ffffffffffffffffffffffffffffffffffffffff1673ffffffffffffffffffffffffffffffffffffffff16815260200190815260200160002054111561243a57600e60008573ffffffffffffffffffffffffffffffffffffffff1673ffffffffffffffffffffffffffffffffffffffff1681526020019081526020016000205460118190555083601260006101000a81548173ffffffffffffffffffffffffffffffffffffffff021916908373ffffffffffffffffffffffffffffffffffffffff1602179055505b6125dd565b61245482600b5461286990919063ffffffff16565b600b819055506124706001600d5461286990919063ffffffff16565b600d819055506124c882600f60008773ffffffffffffffffffffffffffffffffffffffff1673ffffffffffffffffffffffffffffffffffffffff1681526020019081526020016000205461286990919063ffffffff16565b600f60008673ffffffffffffffffffffffffffffffffffffffff1673ffffffffffffffffffffffffffffffffffffffff16815260200190815260200160002081905550601154600f60008673ffffffffffffffffffffffffffffffffffffffff1673ffffffffffffffffffffffffffffffffffffffff1681526020019081526020016000205411156125dc57600f60008573ffffffffffffffffffffffffffffffffffffffff1673ffffffffffffffffffffffffffffffffffffffff1681526020019081526020016000205460118190555083601260006101000a81548173ffffffffffffffffffffffffffffffffffffffff021916908373ffffffffffffffffffffffffffffffffffffffff1602179055505b5b73__CompoundHelper________________________630c0a769b600460009054906101000a900473ffffffffffffffffffffffffffffffffffffffff16600660009054906101000a900473ffffffffffffffffffffffffffffffffffffffff16856040518463ffffffff1660e01b8152600401808473ffffffffffffffffffffffffffffffffffffffff1673ffffffffffffffffffffffffffffffffffffffff1681526020018373ffffffffffffffffffffffffffffffffffffffff1673ffffffffffffffffffffffffffffffffffffffff168152602001828152602001935050505060206040518083038186803b1580156126d857600080fd5b505af41580156126ec573d6000803e3d6000fd5b505050506040513d602081101561270257600080fd5b8101908080519060200190929190505050507fb8385a203db1c9a53995e98892022cf36587e8ab2cf86e67e1be4bba4033f8c2848484604051808473ffffffffffffffffffffffffffffffffffffffff1673ffffffffffffffffffffffffffffffffffffffff16815260200183151515158152602001828152602001935050505060405180910390a1600190506001601660006101000a81548160ff021916908360ff1602179055509392505050565b600560009054906101000a900473ffffffffffffffffffffffffffffffffffffffff1681565b60155481565b60145481565b600e6020528060005260406000206000915090505481565b600360009054906101000a900473ffffffffffffffffffffffffffffffffffffffff1681565b60008061284a8461283c8588612dfc90919063ffffffff16565b612e8290919063ffffffff16565b905061285f858261286990919063ffffffff16565b9150509392505050565b6000808284019050838110156128e7576040517f08c379a000000000000000000000000000000000000000000000000000000000815260040180806020018281038252601b8152602001807f536166654d6174683a206164646974696f6e206f766572666c6f77000000000081525060200191505060405180910390fd5b8091505092915050565b600060608473ffffffffffffffffffffffffffffffffffffffff1663a9059cbb8585604051602401808373ffffffffffffffffffffffffffffffffffffffff1673ffffffffffffffffffffffffffffffffffffffff168152602001828152602001925050506040516020818303038152906040529060e01b6020820180517bffffffffffffffffffffffffffffffffffffffffffffffffffffffff83818316178352505050506040518082805190602001908083835b602083106129ca57805182526020820191506020810190506020830392506129a7565b6001836020036101000a0380198251168184511680821785525050505050509050019150506000604051808303816000865af19150503d8060008114612a2c576040519150601f19603f3d011682016040523d82523d6000602084013e612a31565b606091505b5091509150818015612a715750600081511480612a705750808060200190516020811015612a5e57600080fd5b81019080805190602001909291905050505b5b612ae3576040517f08c379a000000000000000000000000000000000000000000000000000000000815260040180806020018281038252601b8152602001807f47616d6548656c7065723a205452414e534645525f4641494c4544000000000081525060200191505060405180910390fd5b5050505050565b600073__CompoundHelper________________________63bba06f27600460009054906101000a900473ffffffffffffffffffffffffffffffffffffffff16600660009054906101000a900473ffffffffffffffffffffffffffffffffffffffff166040518363ffffffff1660e01b8152600401808373ffffffffffffffffffffffffffffffffffffffff1673ffffffffffffffffffffffffffffffffffffffff1681526020018273ffffffffffffffffffffffffffffffffffffffff1673ffffffffffffffffffffffffffffffffffffffff1681526020019250505060206040518083038186803b158015612bdf57600080fd5b505af4158015612bf3573d6000803e3d6000fd5b505050506040513d6020811015612c0957600080fd5b810190808051906020019092919050505090506000612c35600b54600a5461286990919063ffffffff16565b905080821015612cad576040517f08c379a000000000000000000000000000000000000000000000000000000000815260040180806020018281038252601b8152602001807f474c5847616d653a2046494e5f494e434f4d455f494e56414c4944000000000081525060200191505060405180910390fd5b612cc08183612ecc90919063ffffffff16565b601381905550612cce612f16565b5050565b60008054148015612ce557506000600154145b612d3a576040517f08c379a00000000000000000000000000000000000000000000000000000000081526004018080602001828103825260278152602001806132596027913960400191505060405180910390fd5b808210612d92576040517f08c379a00000000000000000000000000000000000000000000000000000000081526004018080602001828103825260228152602001806132376022913960400191505060405180910390fd5b438211612dea576040517f08c379a00000000000000000000000000000000000000000000000000000000081526004018080602001828103825260228152602001806132376022913960400191505060405180910390fd5b81600081905550806001819055505050565b600080831415612e0f5760009050612e7c565b6000828402905082848281612e2057fe5b0414612e77576040517f08c379a00000000000000000000000000000000000000000000000000000000081526004018080602001828103825260218152602001806132166021913960400191505060405180910390fd5b809150505b92915050565b6000612ec483836040518060400160405280601a81526020017f536166654d6174683a206469766973696f6e206279207a65726f000000000000815250613028565b905092915050565b6000612f0e83836040518060400160405280601e81526020017f536166654d6174683a207375627472616374696f6e206f766572666c6f7700008152506130ee565b905092915050565b600960009054906101000a900460ff1615612f7c57612f546064612f466003600b54612dfc90919063ffffffff16565b612e8290919063ffffffff16565b601481905550612f71601454600b54612ecc90919063ffffffff16565b601581905550612fc9565b612fa56064612f976003600a54612dfc90919063ffffffff16565b612e8290919063ffffffff16565b601481905550612fc2601454600a54612ecc90919063ffffffff16565b6015819055505b6000601554111561302657613025600460009054906101000a900473ffffffffffffffffffffffffffffffffffffffff16600560009054906101000a900473ffffffffffffffffffffffffffffffffffffffff166014546128f1565b5b565b600080831182906130d4576040517f08c379a00000000000000000000000000000000000000000000000000000000081526004018080602001828103825283818151815260200191508051906020019080838360005b8381101561309957808201518184015260208101905061307e565b50505050905090810190601f1680156130c65780820380516001836020036101000a031916815260200191505b509250505060405180910390fd5b5060008385816130e057fe5b049050809150509392505050565b600083831115829061319b576040517f08c379a00000000000000000000000000000000000000000000000000000000081526004018080602001828103825283818151815260200191508051906020019080838360005b83811015613160578082015181840152602081019050613145565b50505050905090810190601f16801561318d5780820380516001836020036101000a031916815260200191505b509250505060405180910390fd5b506000838503905080915050939250505056fe474c5847616d653a2047414d455f524553554c545f414c52454144595f4f50454e474c5847616d653a2047414d455f524553554c545f414c52454144595f4f5241434c4544474c5847616d653a2047414d455f4e4f545f53544152545f4745545f494e434f4d45536166654d6174683a206d756c7469706c69636174696f6e206f766572666c6f77474c584c6966656379636c653a20424c4f434b5f4e554d4245525f494e56414c4944474c584c6966656379636c653a20424c4f434b5f4e554d4245525f414c52454144595f494e4954a264697066735822122087e4adbb8109d9d52cea857e48cfcabac7b7c8257d27c02a3f8e81b0980bdeab64736f6c634300060200334f776e61626c653a206e6577206f776e657220697320746865207a65726f2061646472657373474c58466163746f72793a204e45575f444953434f554e545f43414e545f4c455353a2646970667358221220178c2b53bf077c73bdf740fbad83c217c71c128672aa90c39be36ea304512afc64736f6c63430006020033",
  "source": "pragma solidity ^0.6.0;\n\nimport \"./interface/IGLXFactory.sol\";\nimport \"./GLXGame.sol\";\nimport \"./GLXToken.sol\";\n\n//factory\ncontract GLXFactory is Ownable {\n\n    //GLXGame => DAI\n    mapping(address => address) public getGameExtToken;\n    //DAI  => gDAI\n    mapping(address => address) public getIntToken;\n    //gDAI  => liquidPool\n    mapping(address => address) public getLiquidPool;\n    //gDAI  => mintDiscount;\n    mapping(address => uint256) public getMintDiscount;\n\n    //\n    function createGame(\n        address router,//router\n        address extToken,//DAI\n        address intToken,//gDAI\n        address finToken,//defi\n        address liquidPool,//\n        uint startBlockNumber,//\n        uint endBlockNumber,//\n        bool isOnChainGame,//\n        address gameObjectToken,//\n        uint256 gameObjectTokenSupply//\n    ) external onlyOwner returns (address game) {\n\n        require(extToken != address(0), 'GLXFactory: TOKEN_INVALID');\n        require(intToken != address(0), 'GLXFactory: TOKEN_INVALID');\n\n        game = _createGame(router, extToken, intToken, finToken, startBlockNumber, endBlockNumber, isOnChainGame, gameObjectToken, gameObjectTokenSupply);\n        getGameExtToken[game] = extToken;\n\n        if (getIntToken[extToken] == address(0)) {\n            getIntToken[extToken] = intToken;\n        }\n\n        if (getLiquidPool[intToken] == address(0)) {\n            getLiquidPool[intToken] = liquidPool;\n            getMintDiscount[intToken] = uint256(1);\n        }\n\n        emit Game(game);\n        return game;\n    }\n\n    event Game(address a);\n\n    //\n    function _createGame(\n        address router,\n        address extToken,\n        address intToken,\n        address finToken,\n        uint startBlockNumber,\n        uint endBlockNumber,\n        bool isOnChainGame,\n        address gameObjectToken,\n        uint256 gameObjectTokenSupply\n    ) private returns (address game) {\n\n        //\n        bytes memory bytecode = type(GLXGame).creationCode;\n        bytes32 salt = keccak256(abi.encodePacked(startBlockNumber));\n        assembly {\n            game := create2(0, add(bytecode, 32), mload(bytecode), salt)\n        }\n\n        //\n        IGLXGame(game).initialize(router, extToken, intToken, finToken, startBlockNumber, endBlockNumber, isOnChainGame, gameObjectToken, gameObjectTokenSupply);\n\n        return game;\n    }\n\n    //epoch\n    function setMintDiscount(address intToken, uint256 mintDiscount) external onlyOwner returns (bool) {\n        require(intToken != address(0), \"GLXFactory: INT_TOKEN_INVALID\");\n        require(getLiquidPool[intToken] != address(0), \"GLXFactory: INT_TOKEN_NOT_EXIST\");\n        require(getMintDiscount[intToken] < mintDiscount, \"GLXFactory: NEW_DISCOUNT_CANT_LESS\");\n\n        getMintDiscount[intToken] = mintDiscount;\n\n        return true;\n    }\n}\n",
  "sourcePath": "/Users/xuyulin/code/xuyulinnn/glxdefi/glxdefi-core/contracts/GLXFactory.sol",
  "compiler": {
    "name": "solc",
    "version": "0.6.2+commit.bacdbe57.Emscripten.clang"
  },
  "schemaVersion": "3.2.3",
  "updatedAt": "2020-08-08T17:05:30.617Z",
  "networkType": "ethereum",
  "devdoc": {
    "methods": {
      "owner()": {
        "details": "Returns the address of the current owner."
      },
      "renounceOwnership()": {
        "details": "Leaves the contract without owner. It will not be possible to call `onlyOwner` functions anymore. Can only be called by the current owner.     * NOTE: Renouncing ownership will leave the contract without an owner, thereby removing any functionality that is only available to the owner."
      },
      "transferOwnership(address)": {
        "details": "Transfers ownership of the contract to a new account (`newOwner`). Can only be called by the current owner."
      }
    }
  },
  "userdoc": {
    "methods": {}
  }
}