{
  "contractName": "GLXGame",
  "abi": [
    {
      "inputs": [],
      "stateMutability": "nonpayable",
      "type": "constructor"
    },
    {
      "inputs": [],
      "name": "extToken",
      "outputs": [
        {
          "internalType": "address",
          "name": "",
          "type": "address"
        }
      ],
      "stateMutability": "view",
      "type": "function"
    },
    {
      "inputs": [],
      "name": "factory",
      "outputs": [
        {
          "internalType": "address",
          "name": "",
          "type": "address"
        }
      ],
      "stateMutability": "view",
      "type": "function"
    },
    {
      "inputs": [
        {
          "internalType": "address",
          "name": "",
          "type": "address"
        }
      ],
      "name": "falseAmountMap",
      "outputs": [
        {
          "internalType": "uint256",
          "name": "",
          "type": "uint256"
        }
      ],
      "stateMutability": "view",
      "type": "function"
    },
    {
      "inputs": [],
      "name": "falseTotalAmount",
      "outputs": [
        {
          "internalType": "uint256",
          "name": "",
          "type": "uint256"
        }
      ],
      "stateMutability": "view",
      "type": "function"
    },
    {
      "inputs": [],
      "name": "falseTotalCount",
      "outputs": [
        {
          "internalType": "uint256",
          "name": "",
          "type": "uint256"
        }
      ],
      "stateMutability": "view",
      "type": "function"
    },
    {
      "inputs": [],
      "name": "finToken",
      "outputs": [
        {
          "internalType": "address",
          "name": "",
          "type": "address"
        }
      ],
      "stateMutability": "view",
      "type": "function"
    },
    {
      "inputs": [],
      "name": "gameObjectToken",
      "outputs": [
        {
          "internalType": "address",
          "name": "",
          "type": "address"
        }
      ],
      "stateMutability": "view",
      "type": "function"
    },
    {
      "inputs": [],
      "name": "gameObjectTokenSupply",
      "outputs": [
        {
          "internalType": "uint256",
          "name": "",
          "type": "uint256"
        }
      ],
      "stateMutability": "view",
      "type": "function"
    },
    {
      "inputs": [],
      "name": "gameResult",
      "outputs": [
        {
          "internalType": "bool",
          "name": "",
          "type": "bool"
        }
      ],
      "stateMutability": "view",
      "type": "function"
    },
    {
      "inputs": [],
      "name": "intToken",
      "outputs": [
        {
          "internalType": "address",
          "name": "",
          "type": "address"
        }
      ],
      "stateMutability": "view",
      "type": "function"
    },
    {
      "inputs": [],
      "name": "interestIncome",
      "outputs": [
        {
          "internalType": "uint256",
          "name": "",
          "type": "uint256"
        }
      ],
      "stateMutability": "view",
      "type": "function"
    },
    {
      "inputs": [],
      "name": "isEnded",
      "outputs": [
        {
          "internalType": "bool",
          "name": "",
          "type": "bool"
        }
      ],
      "stateMutability": "view",
      "type": "function"
    },
    {
      "inputs": [],
      "name": "isGameResultOpen",
      "outputs": [
        {
          "internalType": "bool",
          "name": "",
          "type": "bool"
        }
      ],
      "stateMutability": "view",
      "type": "function"
    },
    {
      "inputs": [],
      "name": "isOnChainGame",
      "outputs": [
        {
          "internalType": "bool",
          "name": "",
          "type": "bool"
        }
      ],
      "stateMutability": "view",
      "type": "function"
    },
    {
      "inputs": [
        {
          "internalType": "address",
          "name": "",
          "type": "address"
        }
      ],
      "name": "isReceivedMap",
      "outputs": [
        {
          "internalType": "bool",
          "name": "",
          "type": "bool"
        }
      ],
      "stateMutability": "view",
      "type": "function"
    },
    {
      "inputs": [],
      "name": "isStarted",
      "outputs": [
        {
          "internalType": "bool",
          "name": "",
          "type": "bool"
        }
      ],
      "stateMutability": "view",
      "type": "function"
    },
    {
      "inputs": [],
      "name": "maxAmount",
      "outputs": [
        {
          "internalType": "uint256",
          "name": "",
          "type": "uint256"
        }
      ],
      "stateMutability": "view",
      "type": "function"
    },
    {
      "inputs": [],
      "name": "maxAmountAccount",
      "outputs": [
        {
          "internalType": "address",
          "name": "",
          "type": "address"
        }
      ],
      "stateMutability": "view",
      "type": "function"
    },
    {
      "inputs": [],
      "name": "router",
      "outputs": [
        {
          "internalType": "address",
          "name": "",
          "type": "address"
        }
      ],
      "stateMutability": "view",
      "type": "function"
    },
    {
      "inputs": [],
      "name": "shareHolderProfit",
      "outputs": [
        {
          "internalType": "uint256",
          "name": "",
          "type": "uint256"
        }
      ],
      "stateMutability": "view",
      "type": "function"
    },
    {
      "inputs": [
        {
          "internalType": "address",
          "name": "",
          "type": "address"
        }
      ],
      "name": "trueAmountMap",
      "outputs": [
        {
          "internalType": "uint256",
          "name": "",
          "type": "uint256"
        }
      ],
      "stateMutability": "view",
      "type": "function"
    },
    {
      "inputs": [],
      "name": "trueTotalAmount",
      "outputs": [
        {
          "internalType": "uint256",
          "name": "",
          "type": "uint256"
        }
      ],
      "stateMutability": "view",
      "type": "function"
    },
    {
      "inputs": [],
      "name": "trueTotalCount",
      "outputs": [
        {
          "internalType": "uint256",
          "name": "",
          "type": "uint256"
        }
      ],
      "stateMutability": "view",
      "type": "function"
    },
    {
      "inputs": [],
      "name": "winPrincipalProfit",
      "outputs": [
        {
          "internalType": "uint256",
          "name": "",
          "type": "uint256"
        }
      ],
      "stateMutability": "view",
      "type": "function"
    },
    {
      "inputs": [
        {
          "internalType": "address",
          "name": "_router",
          "type": "address"
        },
        {
          "internalType": "address",
          "name": "_extToken",
          "type": "address"
        },
        {
          "internalType": "address",
          "name": "_intToken",
          "type": "address"
        },
        {
          "internalType": "address",
          "name": "_finToken",
          "type": "address"
        },
        {
          "internalType": "uint256",
          "name": "_startBlockNumber",
          "type": "uint256"
        },
        {
          "internalType": "uint256",
          "name": "_endBlockNumber",
          "type": "uint256"
        },
        {
          "internalType": "bool",
          "name": "_isOnChainGame",
          "type": "bool"
        },
        {
          "internalType": "address",
          "name": "_gameObjectToken",
          "type": "address"
        },
        {
          "internalType": "uint256",
          "name": "_gameObjectTokenSupply",
          "type": "uint256"
        }
      ],
      "name": "initialize",
      "outputs": [],
      "stateMutability": "nonpayable",
      "type": "function"
    },
    {
      "inputs": [],
      "name": "isCanReceive",
      "outputs": [
        {
          "internalType": "bool",
          "name": "",
          "type": "bool"
        }
      ],
      "stateMutability": "view",
      "type": "function"
    },
    {
      "inputs": [],
      "name": "isExistBonusNeedReceive",
      "outputs": [
        {
          "internalType": "bool",
          "name": "",
          "type": "bool"
        }
      ],
      "stateMutability": "view",
      "type": "function"
    },
    {
      "inputs": [
        {
          "internalType": "address",
          "name": "account",
          "type": "address"
        },
        {
          "internalType": "bool",
          "name": "direction",
          "type": "bool"
        },
        {
          "internalType": "uint256",
          "name": "amount",
          "type": "uint256"
        }
      ],
      "name": "bet",
      "outputs": [
        {
          "internalType": "bool",
          "name": "",
          "type": "bool"
        }
      ],
      "stateMutability": "nonpayable",
      "type": "function"
    },
    {
      "inputs": [
        {
          "internalType": "address",
          "name": "_account",
          "type": "address"
        }
      ],
      "name": "getIncome",
      "outputs": [
        {
          "internalType": "bool",
          "name": "",
          "type": "bool"
        }
      ],
      "stateMutability": "nonpayable",
      "type": "function"
    },
    {
      "inputs": [],
      "name": "updateGameResult",
      "outputs": [
        {
          "internalType": "bool",
          "name": "",
          "type": "bool"
        }
      ],
      "stateMutability": "nonpayable",
      "type": "function"
    },
    {
      "inputs": [
        {
          "internalType": "uint8",
          "name": "_gameResult",
          "type": "uint8"
        }
      ],
      "name": "updateGameResultByOracle",
      "outputs": [
        {
          "internalType": "bool",
          "name": "",
          "type": "bool"
        }
      ],
      "stateMutability": "nonpayable",
      "type": "function"
    },
    {
      "inputs": [],
      "name": "getApr",
      "outputs": [
        {
          "internalType": "uint256",
          "name": "",
          "type": "uint256"
        }
      ],
      "stateMutability": "nonpayable",
      "type": "function"
    },
    {
      "inputs": [],
      "name": "getCurUserCount",
      "outputs": [
        {
          "internalType": "uint256",
          "name": "",
          "type": "uint256"
        }
      ],
      "stateMutability": "view",
      "type": "function"
    }
  ],
  "bytecode": "0x60806040526000601660006101000a81548160ff021916908360ff16021790555034801561002c57600080fd5b5033600260006101000a81548173ffffffffffffffffffffffffffffffffffffffff021916908373ffffffffffffffffffffffffffffffffffffffff1602179055506130fc8061007d6000396000f3fe608060405234801561001057600080fd5b50600436106101fb5760003560e01c80638b6707b41161011a578063d84ce2d9116100ad578063ea0610381161007c578063ea0610381461084a578063ec4bbf7714610894578063ef7128fe146108b2578063f5da8b82146108d0578063f887ea4014610928576101fb565b8063d84ce2d9146106da578063e22c612814610724578063e30fd44014610780578063e43cceb6146107d8576101fb565b8063a4fd6f56116100e9578063a4fd6f5614610603578063a8f8d9df14610625578063c45a015514610647578063caa9aa7014610691576101fb565b80638b6707b4146104b65780638f47ac71146104d457806394db3e84146105c3578063a4104bc7146105e5576101fb565b80635d2ad4e811610192578063606c7db011610161578063606c7db01461040e57806369ee9fee146104585780637152f80014610476578063845bc80414610498576101fb565b80635d2ad4e81461038e5780635f48f393146103b05780636007b239146103ce578063605ee8eb146103f0576101fb565b80633cb7e012116101ce5780633cb7e012146102d45780633d83e5d7146103305780634d830d6f1461034e578063544736e61461036c576101fb565b80630b246c5414610200578063143c24de146102225780631df4111b146102405780633bb51ee41461028a575b600080fd5b610208610972565b604051808215151515815260200191505060405180910390f35b61022a610985565b6040518082815260200191505060405180910390f35b61024861098b565b604051808273ffffffffffffffffffffffffffffffffffffffff1673ffffffffffffffffffffffffffffffffffffffff16815260200191505060405180910390f35b6102926109b1565b604051808273ffffffffffffffffffffffffffffffffffffffff1673ffffffffffffffffffffffffffffffffffffffff16815260200191505060405180910390f35b610316600480360360208110156102ea57600080fd5b81019080803573ffffffffffffffffffffffffffffffffffffffff1690602001909291905050506109d7565b604051808215151515815260200191505060405180910390f35b6103386109f7565b6040518082815260200191505060405180910390f35b6103566109fd565b6040518082815260200191505060405180910390f35b610374610a1b565b604051808215151515815260200191505060405180910390f35b610396610a36565b604051808215151515815260200191505060405180910390f35b6103b8610f65565b6040518082815260200191505060405180910390f35b6103d6610f6b565b604051808215151515815260200191505060405180910390f35b6103f8610f7e565b6040518082815260200191505060405180910390f35b610416610f84565b604051808273ffffffffffffffffffffffffffffffffffffffff1673ffffffffffffffffffffffffffffffffffffffff16815260200191505060405180910390f35b610460610faa565b6040518082815260200191505060405180910390f35b61047e610fb0565b604051808215151515815260200191505060405180910390f35b6104a0610fc3565b6040518082815260200191505060405180910390f35b6104be61111c565b6040518082815260200191505060405180910390f35b6105c160048036036101208110156104eb57600080fd5b81019080803573ffffffffffffffffffffffffffffffffffffffff169060200190929190803573ffffffffffffffffffffffffffffffffffffffff169060200190929190803573ffffffffffffffffffffffffffffffffffffffff169060200190929190803573ffffffffffffffffffffffffffffffffffffffff1690602001909291908035906020019092919080359060200190929190803515159060200190929190803573ffffffffffffffffffffffffffffffffffffffff16906020019092919080359060200190929190505050611122565b005b6105cb611360565b604051808215151515815260200191505060405180910390f35b6105ed6114b1565b6040518082815260200191505060405180910390f35b61060b6114b7565b604051808215151515815260200191505060405180910390f35b61062d6114d4565b604051808215151515815260200191505060405180910390f35b61064f611510565b604051808273ffffffffffffffffffffffffffffffffffffffff1673ffffffffffffffffffffffffffffffffffffffff16815260200191505060405180910390f35b6106c0600480360360208110156106a757600080fd5b81019080803560ff169060200190929190505050611536565b604051808215151515815260200191505060405180910390f35b6106e261192e565b604051808273ffffffffffffffffffffffffffffffffffffffff1673ffffffffffffffffffffffffffffffffffffffff16815260200191505060405180910390f35b6107666004803603602081101561073a57600080fd5b81019080803573ffffffffffffffffffffffffffffffffffffffff169060200190929190505050611954565b604051808215151515815260200191505060405180910390f35b6107c26004803603602081101561079657600080fd5b81019080803573ffffffffffffffffffffffffffffffffffffffff16906020019092919050505061209b565b6040518082815260200191505060405180910390f35b610830600480360360608110156107ee57600080fd5b81019080803573ffffffffffffffffffffffffffffffffffffffff169060200190929190803515159060200190929190803590602001909291905050506120b3565b604051808215151515815260200191505060405180910390f35b610852612854565b604051808273ffffffffffffffffffffffffffffffffffffffff1673ffffffffffffffffffffffffffffffffffffffff16815260200191505060405180910390f35b61089c61287a565b6040518082815260200191505060405180910390f35b6108ba612880565b6040518082815260200191505060405180910390f35b610912600480360360208110156108e657600080fd5b81019080803573ffffffffffffffffffffffffffffffffffffffff169060200190929190505050612886565b6040518082815260200191505060405180910390f35b61093061289e565b604051808273ffffffffffffffffffffffffffffffffffffffff1673ffffffffffffffffffffffffffffffffffffffff16815260200191505060405180910390f35b600660149054906101000a900460ff1681565b600d5481565b600660009054906101000a900473ffffffffffffffffffffffffffffffffffffffff1681565b600460009054906101000a900473ffffffffffffffffffffffffffffffffffffffff1681565b60106020528060005260406000206000915054906101000a900460ff1681565b60085481565b6000610a16600d54600c546128c490919063ffffffff16565b905090565b600080544310610a2e5760019050610a33565b600090505b90565b60006001601660009054906101000a900460ff1660ff1614610ac0576040517f08c379a000000000000000000000000000000000000000000000000000000000815260040180806020018281038252600f8152602001807f474c5847616d653a204c4f434b4544000000000000000000000000000000000081525060200191505060405180910390fd5b6000601660006101000a81548160ff021916908360ff160217905550610ae46114b7565b610b56576040517f08c379a000000000000000000000000000000000000000000000000000000000815260040180806020018281038252600e8152602001807f456e643a206e6f7420656e64656400000000000000000000000000000000000081525060200191505060405180910390fd5b600660149054906101000a900460ff16610bd8576040517f08c379a000000000000000000000000000000000000000000000000000000000815260040180806020018281038252601a8152602001807f474c5847616d653a204e4f545f4f4e5f434841494e5f47414d4500000000000081525060200191505060405180910390fd5b600660159054906101000a900460ff1615610c5b576040517f08c379a00000000000000000000000000000000000000000000000000000000081526004018080602001828103825260188152602001807f474c5847616d653a20414c52454144595f4f5241434c4544000000000000000081525060200191505060405180910390fd5b600854600760009054906101000a900473ffffffffffffffffffffffffffffffffffffffff1673ffffffffffffffffffffffffffffffffffffffff166318160ddd6040518163ffffffff1660e01b815260040160206040518083038186803b158015610cc657600080fd5b505afa158015610cda573d6000803e3d6000fd5b505050506040513d6020811015610cf057600080fd5b810190808051906020019092919050505010610d26576001600960006101000a81548160ff021916908315150217905550610d42565b6000600960006101000a81548160ff0219169083151502179055505b600073__CompoundHelper________________________63bba06f27600460009054906101000a900473ffffffffffffffffffffffffffffffffffffffff16600660009054906101000a900473ffffffffffffffffffffffffffffffffffffffff166040518363ffffffff1660e01b8152600401808373ffffffffffffffffffffffffffffffffffffffff1673ffffffffffffffffffffffffffffffffffffffff1681526020018273ffffffffffffffffffffffffffffffffffffffff1673ffffffffffffffffffffffffffffffffffffffff1681526020019250505060206040518083038186803b158015610e3757600080fd5b505af4158015610e4b573d6000803e3d6000fd5b505050506040513d6020811015610e6157600080fd5b810190808051906020019092919050505090506000610e8d600b54600a546128c490919063ffffffff16565b9050808210610f04576040517f08c379a000000000000000000000000000000000000000000000000000000000815260040180806020018281038252601b8152602001807f474c5847616d653a2046494e5f494e434f4d455f494e56414c4944000000000081525060200191505060405180910390fd5b610f17818361294c90919063ffffffff16565b601381905550610f25612996565b6001600660156101000a81548160ff0219169083151502179055506001925050506001601660006101000a81548160ff021916908360ff16021790555090565b60115481565b600660159054906101000a900460ff1681565b600b5481565b600760009054906101000a900473ffffffffffffffffffffffffffffffffffffffff1681565b600a5481565b600960009054906101000a900460ff1681565b6000610fcd6114b7565b61103f576040517f08c379a000000000000000000000000000000000000000000000000000000000815260040180806020018281038252600e8152602001807f456e643a206e6f7420656e64656400000000000000000000000000000000000081525060200191505060405180910390fd5b73__CompoundHelper________________________63dc3b7c8b600660009054906101000a900473ffffffffffffffffffffffffffffffffffffffff166040518263ffffffff1660e01b8152600401808273ffffffffffffffffffffffffffffffffffffffff1673ffffffffffffffffffffffffffffffffffffffff16815260200191505060206040518083038186803b1580156110dc57600080fd5b505af41580156110f0573d6000803e3d6000fd5b505050506040513d602081101561110657600080fd5b8101908080519060200190929190505050905090565b60135481565b600260009054906101000a900473ffffffffffffffffffffffffffffffffffffffff1673ffffffffffffffffffffffffffffffffffffffff163373ffffffffffffffffffffffffffffffffffffffff16146111e5576040517f08c379a00000000000000000000000000000000000000000000000000000000081526004018080602001828103825260128152602001807f474c5847616d653a20464f5242494444454e000000000000000000000000000081525060200191505060405180910390fd5b88600360006101000a81548173ffffffffffffffffffffffffffffffffffffffff021916908373ffffffffffffffffffffffffffffffffffffffff16021790555087600460006101000a81548173ffffffffffffffffffffffffffffffffffffffff021916908373ffffffffffffffffffffffffffffffffffffffff16021790555086600560006101000a81548173ffffffffffffffffffffffffffffffffffffffff021916908373ffffffffffffffffffffffffffffffffffffffff16021790555085600660006101000a81548173ffffffffffffffffffffffffffffffffffffffff021916908373ffffffffffffffffffffffffffffffffffffffff1602179055506112f38585612a9c565b82600660146101000a81548160ff02191690831515021790555081600760006101000a81548173ffffffffffffffffffffffffffffffffffffffff021916908373ffffffffffffffffffffffffffffffffffffffff16021790555080600881905550505050505050505050565b600061136a6114d4565b61137757600090506114ae565b6000600e60003373ffffffffffffffffffffffffffffffffffffffff1673ffffffffffffffffffffffffffffffffffffffff168152602001908152602001600020541180156113d25750600960009054906101000a900460ff165b156113e057600190506114ae565b6000600f60003373ffffffffffffffffffffffffffffffffffffffff1673ffffffffffffffffffffffffffffffffffffffff1681526020019081526020016000205411801561143c5750600960009054906101000a900460ff16155b1561144a57600190506114ae565b601260009054906101000a900473ffffffffffffffffffffffffffffffffffffffff1673ffffffffffffffffffffffffffffffffffffffff163373ffffffffffffffffffffffffffffffffffffffff1614156114a957600190506114ae565b600090505b90565b600c5481565b60006001544311156114cc57600190506114d1565b600090505b90565b60006114de6114b7565b6114eb576000905061150d565b600660159054906101000a900460ff16611508576000905061150d565b600190505b90565b600260009054906101000a900473ffffffffffffffffffffffffffffffffffffffff1681565b60006001601660009054906101000a900460ff1660ff16146115c0576040517f08c379a000000000000000000000000000000000000000000000000000000000815260040180806020018281038252600f8152602001807f474c5847616d653a204c4f434b4544000000000000000000000000000000000081525060200191505060405180910390fd5b6000601660006101000a81548160ff021916908360ff160217905550600360009054906101000a900473ffffffffffffffffffffffffffffffffffffffff1673ffffffffffffffffffffffffffffffffffffffff163373ffffffffffffffffffffffffffffffffffffffff161461169f576040517f08c379a00000000000000000000000000000000000000000000000000000000081526004018080602001828103825260128152602001807f474c5847616d653a20464f5242494444454e000000000000000000000000000081525060200191505060405180910390fd5b6116a76114b7565b611719576040517f08c379a000000000000000000000000000000000000000000000000000000000815260040180806020018281038252600e8152602001807f456e643a206e6f7420656e64656400000000000000000000000000000000000081525060200191505060405180910390fd5b600660149054906101000a900460ff161561179c576040517f08c379a000000000000000000000000000000000000000000000000000000000815260040180806020018281038252601b8152602001807f474c5847616d653a204e4f545f4f46465f434841494e5f47414d45000000000081525060200191505060405180910390fd5b600660159054906101000a900460ff161561181f576040517f08c379a00000000000000000000000000000000000000000000000000000000081526004018080602001828103825260188152602001807f474c5847616d653a20414c52454144595f4f5241434c4544000000000000000081525060200191505060405180910390fd5b60018260ff161480611834575060028260ff16145b6118a6576040517f08c379a000000000000000000000000000000000000000000000000000000000815260040180806020018281038252601c8152602001807f474c5847616d653a2067616d65526573756c74e4b88de59088e6b3950000000081525060200191505060405180910390fd5b60018260ff1614156118d2576001600960006101000a81548160ff0219169083151502179055506118ee565b6001600960006101000a81548160ff0219169083151502179055505b6001600660156101000a81548160ff021916908315150217905550600190506001601660006101000a81548160ff021916908360ff160217905550919050565b601260009054906101000a900473ffffffffffffffffffffffffffffffffffffffff1681565b60006001601660009054906101000a900460ff1660ff16146119de576040517f08c379a000000000000000000000000000000000000000000000000000000000815260040180806020018281038252600f8152602001807f474c5847616d653a204c4f434b4544000000000000000000000000000000000081525060200191505060405180910390fd5b6000601660006101000a81548160ff021916908360ff160217905550611a026114d4565b15611a75576040517f08c379a00000000000000000000000000000000000000000000000000000000081526004018080602001828103825260188152602001807f474c5847616d653a204e4f545f43414e5f52454345495645000000000000000081525060200191505060405180910390fd5b600073ffffffffffffffffffffffffffffffffffffffff168273ffffffffffffffffffffffffffffffffffffffff161415611b18576040517f08c379a000000000000000000000000000000000000000000000000000000000815260040180806020018281038252601d8152602001807f474c5847616d653a20524543454956455f414444524553535f5a45524f00000081525060200191505060405180910390fd5b601060008373ffffffffffffffffffffffffffffffffffffffff1673ffffffffffffffffffffffffffffffffffffffff16815260200190815260200160002060009054906101000a900460ff1615611bd8576040517f08c379a00000000000000000000000000000000000000000000000000000000081526004018080602001828103825260118152602001807f474c5847616d653a20524543454956454400000000000000000000000000000081525060200191505060405180910390fd5b6000600a541415611c51576040517f08c379a000000000000000000000000000000000000000000000000000000000815260040180806020018281038252601f8152602001807f474c5847616d653a20545255455f544f54414c5f414d4f554e545f5a45524f0081525060200191505060405180910390fd5b6000600b541415611cca576040517f08c379a00000000000000000000000000000000000000000000000000000000081526004018080602001828103825260208152602001807f474c5847616d653a2046414c53455f544f54414c5f414d4f554e545f5a45524f81525060200191505060405180910390fd5b600660159054906101000a900460ff16611d4c576040517f08c379a00000000000000000000000000000000000000000000000000000000081526004018080602001828103825260188152602001807f474c5847616d653a20e8bf98e6b2a1e69c89e5bc80e5a596000000000000000081525060200191505060405180910390fd5b6000809050600960009054906101000a900460ff1615611e71576000600e60008573ffffffffffffffffffffffffffffffffffffffff1673ffffffffffffffffffffffffffffffffffffffff168152602001908152602001600020541415611e1c576040517f08c379a00000000000000000000000000000000000000000000000000000000081526004018080602001828103825260128152602001807f474c5847616d653a204e4f545f4558495354000000000000000000000000000081525060200191505060405180910390fd5b611e6a600e60008573ffffffffffffffffffffffffffffffffffffffff1673ffffffffffffffffffffffffffffffffffffffff16815260200190815260200160002054600a54601554612bc6565b9050611f78565b6000600f60008573ffffffffffffffffffffffffffffffffffffffff1673ffffffffffffffffffffffffffffffffffffffff168152602001908152602001600020541415611f27576040517f08c379a00000000000000000000000000000000000000000000000000000000081526004018080602001828103825260128152602001807f474c5847616d653a204e4f545f4558495354000000000000000000000000000081525060200191505060405180910390fd5b611f75600f60008573ffffffffffffffffffffffffffffffffffffffff1673ffffffffffffffffffffffffffffffffffffffff16815260200190815260200160002054600b54601554612bc6565b90505b601260009054906101000a900473ffffffffffffffffffffffffffffffffffffffff1673ffffffffffffffffffffffffffffffffffffffff168373ffffffffffffffffffffffffffffffffffffffff161415611fe657611fe3601354826128c490919063ffffffff16565b90505b60008111156120755761201c600460009054906101000a900473ffffffffffffffffffffffffffffffffffffffff168483612c0d565b6001601060008573ffffffffffffffffffffffffffffffffffffffff1673ffffffffffffffffffffffffffffffffffffffff16815260200190815260200160002060006101000a81548160ff0219169083151502179055505b60019150506001601660006101000a81548160ff021916908360ff160217905550919050565b600f6020528060005260406000206000915090505481565b60006001601660009054906101000a900460ff1660ff161461213d576040517f08c379a000000000000000000000000000000000000000000000000000000000815260040180806020018281038252600f8152602001807f474c5847616d653a204c4f434b4544000000000000000000000000000000000081525060200191505060405180910390fd5b6000601660006101000a81548160ff021916908360ff160217905550612161610a1b565b156121d4576040517f08c379a000000000000000000000000000000000000000000000000000000000815260040180806020018281038252600e8152602001807f53746172743a207374617274656400000000000000000000000000000000000081525060200191505060405180910390fd5b600360009054906101000a900473ffffffffffffffffffffffffffffffffffffffff1673ffffffffffffffffffffffffffffffffffffffff163373ffffffffffffffffffffffffffffffffffffffff1614612297576040517f08c379a00000000000000000000000000000000000000000000000000000000081526004018080602001828103825260128152602001807f474c5847616d653a20464f5242494444454e000000000000000000000000000081525060200191505060405180910390fd5b600073ffffffffffffffffffffffffffffffffffffffff168473ffffffffffffffffffffffffffffffffffffffff16141561233a576040517f08c379a00000000000000000000000000000000000000000000000000000000081526004018080602001828103825260198152602001807f474c5847616d653a204245545f414444524553535f5a45524f0000000000000081525060200191505060405180910390fd5b600082116123b0576040517f08c379a00000000000000000000000000000000000000000000000000000000081526004018080602001828103825260188152602001807f474c5847616d653a204245545f414d4f554e545f5a45524f000000000000000081525060200191505060405180910390fd5b8215612558576123cb82600a546128c490919063ffffffff16565b600a819055506123e76001600c546128c490919063ffffffff16565b600c8190555061243f82600e60008773ffffffffffffffffffffffffffffffffffffffff1673ffffffffffffffffffffffffffffffffffffffff168152602001908152602001600020546128c490919063ffffffff16565b600e60008673ffffffffffffffffffffffffffffffffffffffff1673ffffffffffffffffffffffffffffffffffffffff16815260200190815260200160002081905550601154600e60008673ffffffffffffffffffffffffffffffffffffffff1673ffffffffffffffffffffffffffffffffffffffff16815260200190815260200160002054111561255357600e60008573ffffffffffffffffffffffffffffffffffffffff1673ffffffffffffffffffffffffffffffffffffffff1681526020019081526020016000205460118190555083601260006101000a81548173ffffffffffffffffffffffffffffffffffffffff021916908373ffffffffffffffffffffffffffffffffffffffff1602179055505b6126f6565b61256d82600b546128c490919063ffffffff16565b600b819055506125896001600d546128c490919063ffffffff16565b600d819055506125e182600f60008773ffffffffffffffffffffffffffffffffffffffff1673ffffffffffffffffffffffffffffffffffffffff168152602001908152602001600020546128c490919063ffffffff16565b600f60008673ffffffffffffffffffffffffffffffffffffffff1673ffffffffffffffffffffffffffffffffffffffff16815260200190815260200160002081905550601154600f60008673ffffffffffffffffffffffffffffffffffffffff1673ffffffffffffffffffffffffffffffffffffffff1681526020019081526020016000205411156126f557600f60008573ffffffffffffffffffffffffffffffffffffffff1673ffffffffffffffffffffffffffffffffffffffff1681526020019081526020016000205460118190555083601260006101000a81548173ffffffffffffffffffffffffffffffffffffffff021916908373ffffffffffffffffffffffffffffffffffffffff1602179055505b5b73__CompoundHelper________________________630c0a769b600460009054906101000a900473ffffffffffffffffffffffffffffffffffffffff16600660009054906101000a900473ffffffffffffffffffffffffffffffffffffffff16856040518463ffffffff1660e01b8152600401808473ffffffffffffffffffffffffffffffffffffffff1673ffffffffffffffffffffffffffffffffffffffff1681526020018373ffffffffffffffffffffffffffffffffffffffff1673ffffffffffffffffffffffffffffffffffffffff168152602001828152602001935050505060206040518083038186803b1580156127f157600080fd5b505af4158015612805573d6000803e3d6000fd5b505050506040513d602081101561281b57600080fd5b810190808051906020019092919050505050600190506001601660006101000a81548160ff021916908360ff1602179055509392505050565b600560009054906101000a900473ffffffffffffffffffffffffffffffffffffffff1681565b60155481565b60145481565b600e6020528060005260406000206000915090505481565b600360009054906101000a900473ffffffffffffffffffffffffffffffffffffffff1681565b600080828401905083811015612942576040517f08c379a000000000000000000000000000000000000000000000000000000000815260040180806020018281038252601b8152602001807f536166654d6174683a206164646974696f6e206f766572666c6f77000000000081525060200191505060405180910390fd5b8091505092915050565b600061298e83836040518060400160405280601e81526020017f536166654d6174683a207375627472616374696f6e206f766572666c6f770000815250612e06565b905092915050565b600960009054906101000a900460ff16156129fc576129d460646129c66003600b54612ec690919063ffffffff16565b612f4c90919063ffffffff16565b6014819055506129f1601454600b5461294c90919063ffffffff16565b601581905550612a49565b612a256064612a176003600a54612ec690919063ffffffff16565b612f4c90919063ffffffff16565b601481905550612a42601454600a5461294c90919063ffffffff16565b6015819055505b612a9a600460009054906101000a900473ffffffffffffffffffffffffffffffffffffffff16600560009054906101000a900473ffffffffffffffffffffffffffffffffffffffff16601454612c0d565b565b60008054148015612aaf57506000600154145b612b04576040517f08c379a00000000000000000000000000000000000000000000000000000000081526004018080602001828103825260278152602001806130a06027913960400191505060405180910390fd5b808210612b5c576040517f08c379a000000000000000000000000000000000000000000000000000000000815260040180806020018281038252602281526020018061307e6022913960400191505060405180910390fd5b438211612bb4576040517f08c379a000000000000000000000000000000000000000000000000000000000815260040180806020018281038252602281526020018061307e6022913960400191505060405180910390fd5b81600081905550806001819055505050565b600080612bee84612be08588612ec690919063ffffffff16565b612f4c90919063ffffffff16565b9050612c0385826128c490919063ffffffff16565b9150509392505050565b600060608473ffffffffffffffffffffffffffffffffffffffff1663a9059cbb8585604051602401808373ffffffffffffffffffffffffffffffffffffffff1673ffffffffffffffffffffffffffffffffffffffff168152602001828152602001925050506040516020818303038152906040529060e01b6020820180517bffffffffffffffffffffffffffffffffffffffffffffffffffffffff83818316178352505050506040518082805190602001908083835b60208310612ce65780518252602082019150602081019050602083039250612cc3565b6001836020036101000a0380198251168184511680821785525050505050509050019150506000604051808303816000865af19150503d8060008114612d48576040519150601f19603f3d011682016040523d82523d6000602084013e612d4d565b606091505b5091509150818015612d8d5750600081511480612d8c5750808060200190516020811015612d7a57600080fd5b81019080805190602001909291905050505b5b612dff576040517f08c379a000000000000000000000000000000000000000000000000000000000815260040180806020018281038252601b8152602001807f47616d6548656c7065723a205452414e534645525f4641494c4544000000000081525060200191505060405180910390fd5b5050505050565b6000838311158290612eb3576040517f08c379a00000000000000000000000000000000000000000000000000000000081526004018080602001828103825283818151815260200191508051906020019080838360005b83811015612e78578082015181840152602081019050612e5d565b50505050905090810190601f168015612ea55780820380516001836020036101000a031916815260200191505b509250505060405180910390fd5b5060008385039050809150509392505050565b600080831415612ed95760009050612f46565b6000828402905082848281612eea57fe5b0414612f41576040517f08c379a000000000000000000000000000000000000000000000000000000000815260040180806020018281038252602181526020018061305d6021913960400191505060405180910390fd5b809150505b92915050565b6000612f8e83836040518060400160405280601a81526020017f536166654d6174683a206469766973696f6e206279207a65726f000000000000815250612f96565b905092915050565b60008083118290613042576040517f08c379a00000000000000000000000000000000000000000000000000000000081526004018080602001828103825283818151815260200191508051906020019080838360005b83811015613007578082015181840152602081019050612fec565b50505050905090810190601f1680156130345780820380516001836020036101000a031916815260200191505b509250505060405180910390fd5b50600083858161304e57fe5b04905080915050939250505056fe536166654d6174683a206d756c7469706c69636174696f6e206f766572666c6f77474c584c6966656379636c653a20424c4f434b5f4e554d4245525f494e56414c4944474c584c6966656379636c653a20424c4f434b5f4e554d4245525f414c52454144595f494e4954a26469706673582212201fd6b2c15d00471357be0c9bbe9774cf6875435e42b968fee82202719903dba064736f6c63430006020033",
  "source": "pragma solidity ^0.6.0;\n\nimport \"@openzeppelin/contracts/math/SafeMath.sol\";\n\nimport \"./interface/IGLXGame.sol\";\nimport \"./interface/IGLXFactory.sol\";\nimport \"./abstract/GLXLifecycle.sol\";\nimport \"./library/GLXHelper.sol\";\nimport \"./library/CompoundHelper.sol\";\n\n\n\ncontract GLXGame is GLXLifecycle{\n\n    using SafeMath for uint256;\n\n    address public factory;\n    address public router;\n    address public extToken;\n    address public intToken;\n    address public finToken;\n\n\n    //true false \n    bool public isOnChainGame;\n    //\n    bool public isGameResultOpen;\n\n    //tokenDAI\n    address public gameObjectToken;\n    //\n    uint256 public gameObjectTokenSupply;\n\n\n    //true  false\n    bool public gameResult;\n\n    //\n    uint256 public trueTotalAmount;\n    //\n    uint256 public falseTotalAmount;\n    //\n    uint256 public trueTotalCount;\n    //\n    uint256 public falseTotalCount;\n\n    //\n    mapping (address => uint256) public trueAmountMap;\n    //\n    mapping (address => uint256) public falseAmountMap;\n\n    //falsetrue\n    mapping (address => bool) public isReceivedMap;\n\n    uint256 public maxAmount;\n    address public maxAmountAccount;\n\n    //\n    uint256 public interestIncome;\n    //\n    uint256 public shareHolderProfit;\n    //falseTotalAmount - shareHolderProfit  trueTotalAmount - shareHolderProfit\n    uint256 public winPrincipalProfit;\n\n\n    uint8 private unlocked = 0;\n    constructor() public {\n        factory = msg.sender;\n    }\n\n    // factoryinit\n    function initialize(\n        address _router,\n        address _extToken,\n        address _intToken,\n        address _finToken,\n\n        uint _startBlockNumber,\n        uint _endBlockNumber,\n        bool _isOnChainGame,\n        address _gameObjectToken,\n        uint256 _gameObjectTokenSupply\n    )  external onlyFactory {\n\n        router = _router;\n        extToken = _extToken;\n        intToken = _intToken;\n        finToken = _finToken;\n\n        _initBlockNumber(_startBlockNumber, _endBlockNumber);\n\n        isOnChainGame = _isOnChainGame;\n\n        //0\n        gameObjectToken = _gameObjectToken;\n        gameObjectTokenSupply = _gameObjectTokenSupply;\n\n    }\n\n    //\n    modifier lock() {\n        require(unlocked == 1, 'GLXGame: LOCKED');\n        unlocked = 0;\n        _;\n        unlocked = 1;\n    }\n\n    modifier onlyRouter() {\n        require(msg.sender == router, 'GLXGame: FORBIDDEN');\n        _;\n    }\n\n    modifier onlyFactory() {\n        require(msg.sender == factory, 'GLXGame: FORBIDDEN');\n        _;\n    }\n\n    modifier whenNotStarted() {\n        require(!isStarted(), \"Start: started\");\n        _;\n    }\n    modifier whenStarted() {\n        require(isStarted(), \"Start: not started\");\n        _;\n    }\n\n\n    modifier whenNotEnded() {\n        require(!isEnded(), \"End: ended\");\n        _;\n    }\n\n    modifier whenEnded() {\n        require(isEnded(), \"End: not ended\");\n        _;\n    }\n\n    //\n    modifier whenCanReceive() {\n        require(!isCanReceive(), 'GLXGame: NOT_CAN_RECEIVE');\n        _;\n    }\n\n\n\n    function isCanReceive() public view returns (bool) {\n        if (!isEnded()) {\n            return false;\n        }\n\n        if(!isGameResultOpen) {\n            return false;\n        }\n\n        return true;\n    }\n\n\n\n    //\n    function isExistBonusNeedReceive() public view returns (bool) {\n        if (!isCanReceive()) {\n            return false;\n        }\n\n        if ((trueAmountMap[msg.sender] > 0) && gameResult) {\n                return true;\n        }\n\n        if ((falseAmountMap[msg.sender] > 0) && !gameResult) {\n            return true;\n        }\n\n        if (msg.sender == maxAmountAccount) {\n            return true;\n        }\n\n        return false;\n    }\n\n\n    function bet(address account, bool direction, uint256 amount) external lock whenNotStarted onlyRouter returns (bool) {\n        require(account != address(0), \"GLXGame: BET_ADDRESS_ZERO\");\n        require(amount > 0, \"GLXGame: BET_AMOUNT_ZERO\");\n\n        if (direction) {\n            //\n            trueTotalAmount = trueTotalAmount.add(amount);\n            trueTotalCount = trueTotalCount.add(1);\n            trueAmountMap[account] = trueAmountMap[account].add(amount);\n            if (trueAmountMap[account] > maxAmount){\n                maxAmount = trueAmountMap[account];\n                maxAmountAccount = account;\n            }\n        } else {\n            //\n            falseTotalAmount = falseTotalAmount.add(amount);\n            falseTotalCount = falseTotalCount.add(1);\n            falseAmountMap[account] = falseAmountMap[account].add(amount);\n            if (falseAmountMap[account] > maxAmount){\n                maxAmount = falseAmountMap[account];\n                maxAmountAccount = account;\n            }\n        }\n\n        CompoundHelper.supply(extToken,  finToken, amount);\n\n        return true;\n    }\n\n    //\n    function getIncome(address _account) external lock whenCanReceive returns (bool) {\n        require(_account != address(0), \"GLXGame: RECEIVE_ADDRESS_ZERO\");\n        require(!isReceivedMap[_account], \"GLXGame: RECEIVED\");\n\n        require(trueTotalAmount != 0, \"GLXGame: TRUE_TOTAL_AMOUNT_ZERO\");\n        require(falseTotalAmount != 0, \"GLXGame: FALSE_TOTAL_AMOUNT_ZERO\");\n\n        // oracle\n        require(isGameResultOpen, \"GLXGame: \");\n\n        uint256 receiveAmount = 0;\n\n        //\n        if (gameResult) {\n            require(trueAmountMap[_account] != 0, \"GLXGame: NOT_EXIST\");\n\n            receiveAmount = GLXHelper.calReceiveAmount(trueAmountMap[_account], trueTotalAmount, winPrincipalProfit);\n        } else {\n            require(falseAmountMap[_account] != 0, \"GLXGame: NOT_EXIST\");\n\n            receiveAmount = GLXHelper.calReceiveAmount(falseAmountMap[_account], falseTotalAmount, winPrincipalProfit);\n        }\n\n        if (_account == maxAmountAccount) {\n            // \n            receiveAmount = receiveAmount.add(interestIncome);\n        }\n\n        if(receiveAmount > 0) {\n            GLXHelper.safeTransfer(extToken, _account, receiveAmount);\n\n            isReceivedMap[_account] = true;\n        }\n\n        return true;\n    }\n\n    // \n    function _transferProfit2ShareHolder() private {\n        if (gameResult) {\n            shareHolderProfit = falseTotalAmount.mul(uint256(3)).div(uint256(100));\n            //\n            winPrincipalProfit = falseTotalAmount.sub(shareHolderProfit);\n        } else {\n            shareHolderProfit = trueTotalAmount.mul(uint256(3)).div(uint256(100));\n            winPrincipalProfit = trueTotalAmount.sub(shareHolderProfit);\n        }\n        GLXHelper.safeTransfer(extToken, intToken, shareHolderProfit);\n    }\n\n    // ,\n    function updateGameResult() external lock whenEnded returns (bool) {\n\n        // oracle\n        require(isOnChainGame, \"GLXGame: NOT_ON_CHAIN_GAME\");\n        require(!isGameResultOpen, \"GLXGame: ALREADY_ORACLED\");\n\n        if (IERC20(gameObjectToken).totalSupply() >= gameObjectTokenSupply) {\n            gameResult = true;\n        } else {\n            gameResult = false;\n        }\n\n        uint256 totalAmount = CompoundHelper.redeem(extToken,  finToken);\n        uint256 initAmount = trueTotalAmount.add(falseTotalAmount);\n\n        require(totalAmount < initAmount, \"GLXGame: FIN_INCOME_INVALID\");\n\n        interestIncome = totalAmount.sub(initAmount);\n\n\n        // burn\n        _transferProfit2ShareHolder();\n\n        isGameResultOpen = true;\n\n        return true;\n    }\n\n\n\n    // oracle;2true 1false \n    function updateGameResultByOracle(uint8 _gameResult) external lock onlyRouter whenEnded returns (bool) {\n\n        // oracle\n        require(!isOnChainGame, \"GLXGame: NOT_OFF_CHAIN_GAME\");\n        require(!isGameResultOpen, \"GLXGame: ALREADY_ORACLED\");\n        require(_gameResult == 1 ||  _gameResult == 2, \"GLXGame: gameResult\");\n\n\n        if(_gameResult == 1) {\n            gameResult = true;\n        } else{\n            gameResult = true;\n        }\n\n        isGameResultOpen = true;\n\n        return true;\n    }\n\n    //\n    function getApr() external whenEnded returns (uint256) {\n        return CompoundHelper.exchangeRate(finToken);\n    }\n\n    //\n    function getCurUserCount() external view returns (uint256) {\n        return trueTotalCount.add(falseTotalCount);\n    }\n}\n",
  "sourcePath": "/Users/xuyulin/code/xuyulinnn/glxdefi/glxdefi-core/contracts/GLXGame.sol",
  "compiler": {
    "name": "solc",
    "version": "0.6.2+commit.bacdbe57.Emscripten.clang"
  },
  "schemaVersion": "3.2.3",
  "updatedAt": "2020-08-07T16:44:24.831Z",
  "devdoc": {
    "methods": {}
  },
  "userdoc": {
    "methods": {}
  }
}