{
  "contractName": "GLXRouter",
  "abi": [
    {
      "inputs": [
        {
          "internalType": "address",
          "name": "_factory",
          "type": "address"
        }
      ],
      "stateMutability": "nonpayable",
      "type": "constructor"
    },
    {
      "anonymous": false,
      "inputs": [
        {
          "indexed": true,
          "internalType": "address",
          "name": "previousOwner",
          "type": "address"
        },
        {
          "indexed": true,
          "internalType": "address",
          "name": "newOwner",
          "type": "address"
        }
      ],
      "name": "OwnershipTransferred",
      "type": "event"
    },
    {
      "inputs": [],
      "name": "factory",
      "outputs": [
        {
          "internalType": "address",
          "name": "",
          "type": "address"
        }
      ],
      "stateMutability": "view",
      "type": "function",
      "constant": true
    },
    {
      "inputs": [],
      "name": "owner",
      "outputs": [
        {
          "internalType": "address",
          "name": "",
          "type": "address"
        }
      ],
      "stateMutability": "view",
      "type": "function",
      "constant": true
    },
    {
      "inputs": [],
      "name": "renounceOwnership",
      "outputs": [],
      "stateMutability": "nonpayable",
      "type": "function"
    },
    {
      "inputs": [
        {
          "internalType": "address",
          "name": "newOwner",
          "type": "address"
        }
      ],
      "name": "transferOwnership",
      "outputs": [],
      "stateMutability": "nonpayable",
      "type": "function"
    },
    {
      "inputs": [
        {
          "internalType": "address",
          "name": "game",
          "type": "address"
        },
        {
          "internalType": "bool",
          "name": "direction",
          "type": "bool"
        },
        {
          "internalType": "uint256",
          "name": "amount",
          "type": "uint256"
        }
      ],
      "name": "bet",
      "outputs": [
        {
          "internalType": "bool",
          "name": "",
          "type": "bool"
        }
      ],
      "stateMutability": "nonpayable",
      "type": "function"
    },
    {
      "inputs": [
        {
          "internalType": "address",
          "name": "game",
          "type": "address"
        }
      ],
      "name": "getIncome",
      "outputs": [
        {
          "internalType": "bool",
          "name": "",
          "type": "bool"
        }
      ],
      "stateMutability": "nonpayable",
      "type": "function"
    },
    {
      "inputs": [
        {
          "internalType": "address",
          "name": "game",
          "type": "address"
        }
      ],
      "name": "updateGameResult",
      "outputs": [
        {
          "internalType": "bool",
          "name": "",
          "type": "bool"
        }
      ],
      "stateMutability": "nonpayable",
      "type": "function"
    },
    {
      "inputs": [
        {
          "internalType": "address",
          "name": "game",
          "type": "address"
        },
        {
          "internalType": "uint8",
          "name": "gameResult",
          "type": "uint8"
        }
      ],
      "name": "updateGameResultByOracle",
      "outputs": [
        {
          "internalType": "bool",
          "name": "",
          "type": "bool"
        }
      ],
      "stateMutability": "nonpayable",
      "type": "function"
    }
  ],
  "bytecode": "0x608060405234801561001057600080fd5b50604051620024f1380380620024f18339818101604052602081101561003557600080fd5b810190808051906020019092919050505060006100566101de60201b60201c565b9050806000806101000a81548173ffffffffffffffffffffffffffffffffffffffff021916908373ffffffffffffffffffffffffffffffffffffffff1602179055508073ffffffffffffffffffffffffffffffffffffffff16600073ffffffffffffffffffffffffffffffffffffffff167f8be0079c531659141344cd1fd0a4f28419497f9722a3daafe3b4186f6b6457e060405160405180910390a350600073ffffffffffffffffffffffffffffffffffffffff168173ffffffffffffffffffffffffffffffffffffffff161415610197576040517f08c379a00000000000000000000000000000000000000000000000000000000081526004018080602001828103825260178152602001807f474c58526f757465723a20414444524553535f4e554c4c00000000000000000081525060200191505060405180910390fd5b80600160006101000a81548173ffffffffffffffffffffffffffffffffffffffff021916908373ffffffffffffffffffffffffffffffffffffffff160217905550506101e6565b600033905090565b6122fb80620001f66000396000f3fe608060405234801561001057600080fd5b50600436106100885760003560e01c8063c45a01551161005b578063c45a0155146101a6578063e22c6128146101f0578063e43cceb61461024c578063f2fde38b146102be57610088565b8063715018a61461008d5780638da5cb5b1461009757806390bece20146100e1578063b67044591461013d575b600080fd5b610095610302565b005b61009f61048a565b604051808273ffffffffffffffffffffffffffffffffffffffff1673ffffffffffffffffffffffffffffffffffffffff16815260200191505060405180910390f35b610123600480360360208110156100f757600080fd5b81019080803573ffffffffffffffffffffffffffffffffffffffff1690602001909291905050506104b3565b604051808215151515815260200191505060405180910390f35b61018c6004803603604081101561015357600080fd5b81019080803573ffffffffffffffffffffffffffffffffffffffff169060200190929190803560ff16906020019092919050505061087f565b604051808215151515815260200191505060405180910390f35b6101ae610c7a565b604051808273ffffffffffffffffffffffffffffffffffffffff1673ffffffffffffffffffffffffffffffffffffffff16815260200191505060405180910390f35b6102326004803603602081101561020657600080fd5b81019080803573ffffffffffffffffffffffffffffffffffffffff169060200190929190505050610ca0565b604051808215151515815260200191505060405180910390f35b6102a46004803603606081101561026257600080fd5b81019080803573ffffffffffffffffffffffffffffffffffffffff16906020019092919080351515906020019092919080359060200190929190505050610ff7565b604051808215151515815260200191505060405180910390f35b610300600480360360208110156102d457600080fd5b81019080803573ffffffffffffffffffffffffffffffffffffffff169060200190929190505050611663565b005b61030a611870565b73ffffffffffffffffffffffffffffffffffffffff166000809054906101000a900473ffffffffffffffffffffffffffffffffffffffff1673ffffffffffffffffffffffffffffffffffffffff16146103cb576040517f08c379a00000000000000000000000000000000000000000000000000000000081526004018080602001828103825260208152602001807f4f776e61626c653a2063616c6c6572206973206e6f7420746865206f776e657281525060200191505060405180910390fd5b600073ffffffffffffffffffffffffffffffffffffffff166000809054906101000a900473ffffffffffffffffffffffffffffffffffffffff1673ffffffffffffffffffffffffffffffffffffffff167f8be0079c531659141344cd1fd0a4f28419497f9722a3daafe3b4186f6b6457e060405160405180910390a360008060006101000a81548173ffffffffffffffffffffffffffffffffffffffff021916908373ffffffffffffffffffffffffffffffffffffffff160217905550565b60008060009054906101000a900473ffffffffffffffffffffffffffffffffffffffff16905090565b60006104bd611870565b73ffffffffffffffffffffffffffffffffffffffff166000809054906101000a900473ffffffffffffffffffffffffffffffffffffffff1673ffffffffffffffffffffffffffffffffffffffff161461057e576040517f08c379a00000000000000000000000000000000000000000000000000000000081526004018080602001828103825260208152602001807f4f776e61626c653a2063616c6c6572206973206e6f7420746865206f776e657281525060200191505060405180910390fd5b81600073ffffffffffffffffffffffffffffffffffffffff168173ffffffffffffffffffffffffffffffffffffffff161415610622576040517f08c379a00000000000000000000000000000000000000000000000000000000081526004018080602001828103825260178152602001807f474c58526f757465723a2047414d455f494e56414c494400000000000000000081525060200191505060405180910390fd5b600073ffffffffffffffffffffffffffffffffffffffff16600160009054906101000a900473ffffffffffffffffffffffffffffffffffffffff1673ffffffffffffffffffffffffffffffffffffffff16638be62fba836040518263ffffffff1660e01b8152600401808273ffffffffffffffffffffffffffffffffffffffff1673ffffffffffffffffffffffffffffffffffffffff16815260200191505060206040518083038186803b1580156106d957600080fd5b505afa1580156106ed573d6000803e3d6000fd5b505050506040513d602081101561070357600080fd5b810190808051906020019092919050505073ffffffffffffffffffffffffffffffffffffffff161461079d576040517f08c379a00000000000000000000000000000000000000000000000000000000081526004018080602001828103825260198152602001807f474c58526f757465723a2047414d455f4e4f545f45584953540000000000000081525060200191505060405180910390fd5b8273ffffffffffffffffffffffffffffffffffffffff16635d2ad4e86040518163ffffffff1660e01b8152600401602060405180830381600087803b1580156107e557600080fd5b505af11580156107f9573d6000803e3d6000fd5b505050506040513d602081101561080f57600080fd5b8101908080519060200190929190505050610875576040517f08c379a00000000000000000000000000000000000000000000000000000000081526004018080602001828103825260248152602001806122816024913960400191505060405180910390fd5b6001915050919050565b6000610889611870565b73ffffffffffffffffffffffffffffffffffffffff166000809054906101000a900473ffffffffffffffffffffffffffffffffffffffff1673ffffffffffffffffffffffffffffffffffffffff161461094a576040517f08c379a00000000000000000000000000000000000000000000000000000000081526004018080602001828103825260208152602001807f4f776e61626c653a2063616c6c6572206973206e6f7420746865206f776e657281525060200191505060405180910390fd5b82600073ffffffffffffffffffffffffffffffffffffffff168173ffffffffffffffffffffffffffffffffffffffff1614156109ee576040517f08c379a00000000000000000000000000000000000000000000000000000000081526004018080602001828103825260178152602001807f474c58526f757465723a2047414d455f494e56414c494400000000000000000081525060200191505060405180910390fd5b600073ffffffffffffffffffffffffffffffffffffffff16600160009054906101000a900473ffffffffffffffffffffffffffffffffffffffff1673ffffffffffffffffffffffffffffffffffffffff16638be62fba836040518263ffffffff1660e01b8152600401808273ffffffffffffffffffffffffffffffffffffffff1673ffffffffffffffffffffffffffffffffffffffff16815260200191505060206040518083038186803b158015610aa557600080fd5b505afa158015610ab9573d6000803e3d6000fd5b505050506040513d6020811015610acf57600080fd5b810190808051906020019092919050505073ffffffffffffffffffffffffffffffffffffffff1614610b69576040517f08c379a00000000000000000000000000000000000000000000000000000000081526004018080602001828103825260198152602001807f474c58526f757465723a2047414d455f4e4f545f45584953540000000000000081525060200191505060405180910390fd5b8373ffffffffffffffffffffffffffffffffffffffff1663caa9aa70846040518263ffffffff1660e01b8152600401808260ff1660ff168152602001915050602060405180830381600087803b158015610bc257600080fd5b505af1158015610bd6573d6000803e3d6000fd5b505050506040513d6020811015610bec57600080fd5b8101908080519060200190929190505050610c6f576040517f08c379a000000000000000000000000000000000000000000000000000000000815260040180806020018281038252601d8152602001807f474c58526f757465723a2047414d455f4f5241434c455f4641494c454400000081525060200191505060405180910390fd5b600191505092915050565b600160009054906101000a900473ffffffffffffffffffffffffffffffffffffffff1681565b600081600073ffffffffffffffffffffffffffffffffffffffff168173ffffffffffffffffffffffffffffffffffffffff161415610d46576040517f08c379a00000000000000000000000000000000000000000000000000000000081526004018080602001828103825260178152602001807f474c58526f757465723a2047414d455f494e56414c494400000000000000000081525060200191505060405180910390fd5b600073ffffffffffffffffffffffffffffffffffffffff16600160009054906101000a900473ffffffffffffffffffffffffffffffffffffffff1673ffffffffffffffffffffffffffffffffffffffff16638be62fba836040518263ffffffff1660e01b8152600401808273ffffffffffffffffffffffffffffffffffffffff1673ffffffffffffffffffffffffffffffffffffffff16815260200191505060206040518083038186803b158015610dfd57600080fd5b505afa158015610e11573d6000803e3d6000fd5b505050506040513d6020811015610e2757600080fd5b810190808051906020019092919050505073ffffffffffffffffffffffffffffffffffffffff1614610ec1576040517f08c379a00000000000000000000000000000000000000000000000000000000081526004018080602001828103825260198152602001807f474c58526f757465723a2047414d455f4e4f545f45584953540000000000000081525060200191505060405180910390fd5b8273ffffffffffffffffffffffffffffffffffffffff1663e22c6128336040518263ffffffff1660e01b8152600401808273ffffffffffffffffffffffffffffffffffffffff1673ffffffffffffffffffffffffffffffffffffffff168152602001915050602060405180830381600087803b158015610f4057600080fd5b505af1158015610f54573d6000803e3d6000fd5b505050506040513d6020811015610f6a57600080fd5b8101908080519060200190929190505050610fed576040517f08c379a000000000000000000000000000000000000000000000000000000000815260040180806020018281038252601e8152602001807f474c58526f757465723a2047414d455f524543454956455f4641494c4544000081525060200191505060405180910390fd5b6001915050919050565b600083600073ffffffffffffffffffffffffffffffffffffffff168173ffffffffffffffffffffffffffffffffffffffff16141561109d576040517f08c379a00000000000000000000000000000000000000000000000000000000081526004018080602001828103825260178152602001807f474c58526f757465723a2047414d455f494e56414c494400000000000000000081525060200191505060405180910390fd5b600073ffffffffffffffffffffffffffffffffffffffff16600160009054906101000a900473ffffffffffffffffffffffffffffffffffffffff1673ffffffffffffffffffffffffffffffffffffffff16638be62fba836040518263ffffffff1660e01b8152600401808273ffffffffffffffffffffffffffffffffffffffff1673ffffffffffffffffffffffffffffffffffffffff16815260200191505060206040518083038186803b15801561115457600080fd5b505afa158015611168573d6000803e3d6000fd5b505050506040513d602081101561117e57600080fd5b810190808051906020019092919050505073ffffffffffffffffffffffffffffffffffffffff1614611218576040517f08c379a00000000000000000000000000000000000000000000000000000000081526004018080602001828103825260198152602001807f474c58526f757465723a2047414d455f4e4f545f45584953540000000000000081525060200191505060405180910390fd5b6000600160009054906101000a900473ffffffffffffffffffffffffffffffffffffffff1673ffffffffffffffffffffffffffffffffffffffff16638be62fba876040518263ffffffff1660e01b8152600401808273ffffffffffffffffffffffffffffffffffffffff1673ffffffffffffffffffffffffffffffffffffffff16815260200191505060206040518083038186803b1580156112b957600080fd5b505afa1580156112cd573d6000803e3d6000fd5b505050506040513d60208110156112e357600080fd5b81019080805190602001909291905050509050600073ffffffffffffffffffffffffffffffffffffffff168173ffffffffffffffffffffffffffffffffffffffff16141561137c576040517f08c379a000000000000000000000000000000000000000000000000000000000815260040180806020018281038252602381526020018061223d6023913960400191505060405180910390fd5b6000600160009054906101000a900473ffffffffffffffffffffffffffffffffffffffff1673ffffffffffffffffffffffffffffffffffffffff16636f4ca3af836040518263ffffffff1660e01b8152600401808273ffffffffffffffffffffffffffffffffffffffff1673ffffffffffffffffffffffffffffffffffffffff16815260200191505060206040518083038186803b15801561141d57600080fd5b505afa158015611431573d6000803e3d6000fd5b505050506040513d602081101561144757600080fd5b81019080805190602001909291905050509050600073ffffffffffffffffffffffffffffffffffffffff168173ffffffffffffffffffffffffffffffffffffffff1614156114fd576040517f08c379a000000000000000000000000000000000000000000000000000000000815260040180806020018281038252601e8152602001807f474c58526f757465723a20494e545f544f4b454e5f4e4f545f4558495354000081525060200191505060405180910390fd5b61150982338988611878565b8673ffffffffffffffffffffffffffffffffffffffff1663e43cceb63388886040518463ffffffff1660e01b8152600401808473ffffffffffffffffffffffffffffffffffffffff1673ffffffffffffffffffffffffffffffffffffffff168152602001831515151581526020018281526020019350505050602060405180830381600087803b15801561159c57600080fd5b505af11580156115b0573d6000803e3d6000fd5b505050506040513d60208110156115c657600080fd5b8101908080519060200190929190505050611649576040517f08c379a000000000000000000000000000000000000000000000000000000000815260040180806020018281038252601a8152602001807f474c58526f757465723a2047414d455f4245545f4641494c454400000000000081525060200191505060405180910390fd5b611654878287611aa6565b50600193505050509392505050565b61166b611870565b73ffffffffffffffffffffffffffffffffffffffff166000809054906101000a900473ffffffffffffffffffffffffffffffffffffffff1673ffffffffffffffffffffffffffffffffffffffff161461172c576040517f08c379a00000000000000000000000000000000000000000000000000000000081526004018080602001828103825260208152602001807f4f776e61626c653a2063616c6c6572206973206e6f7420746865206f776e657281525060200191505060405180910390fd5b600073ffffffffffffffffffffffffffffffffffffffff168173ffffffffffffffffffffffffffffffffffffffff1614156117b2576040517f08c379a00000000000000000000000000000000000000000000000000000000081526004018080602001828103825260268152602001806122176026913960400191505060405180910390fd5b8073ffffffffffffffffffffffffffffffffffffffff166000809054906101000a900473ffffffffffffffffffffffffffffffffffffffff1673ffffffffffffffffffffffffffffffffffffffff167f8be0079c531659141344cd1fd0a4f28419497f9722a3daafe3b4186f6b6457e060405160405180910390a3806000806101000a81548173ffffffffffffffffffffffffffffffffffffffff021916908373ffffffffffffffffffffffffffffffffffffffff16021790555050565b600033905090565b600060608573ffffffffffffffffffffffffffffffffffffffff166323b872dd868686604051602401808473ffffffffffffffffffffffffffffffffffffffff1673ffffffffffffffffffffffffffffffffffffffff1681526020018373ffffffffffffffffffffffffffffffffffffffff1673ffffffffffffffffffffffffffffffffffffffff16815260200182815260200193505050506040516020818303038152906040529060e01b6020820180517bffffffffffffffffffffffffffffffffffffffffffffffffffffffff83818316178352505050506040518082805190602001908083835b602083106119855780518252602082019150602081019050602083039250611962565b6001836020036101000a0380198251168184511680821785525050505050509050019150506000604051808303816000865af19150503d80600081146119e7576040519150601f19603f3d011682016040523d82523d6000602084013e6119ec565b606091505b5091509150818015611a2c5750600081511480611a2b5750808060200190516020811015611a1957600080fd5b81019080805190602001909291905050505b5b611a9e576040517f08c379a00000000000000000000000000000000000000000000000000000000081526004018080602001828103825260208152602001807f47616d6548656c7065723a205452414e534645525f46524f4d5f4641494c454481525060200191505060405180910390fd5b505050505050565b6000808473ffffffffffffffffffffffffffffffffffffffff16634d830d6f6040518163ffffffff1660e01b815260040160206040518083038186803b158015611aef57600080fd5b505afa158015611b03573d6000803e3d6000fd5b505050506040513d6020811015611b1957600080fd5b8101908080519060200190929190505050905060008111611b85576040517f08c379a00000000000000000000000000000000000000000000000000000000081526004018080602001828103825260218152602001806122a56021913960400191505060405180910390fd5b6000611bc0611bb1611ba1600a85611cf590919063ffffffff16565b6001611d3f90919063ffffffff16565b85611cf590919063ffffffff16565b90506000611bd8604686611dc790919063ffffffff16565b90506000611bef8284611e4d90919063ffffffff16565b9050611bfc873384611e97565b6000600160009054906101000a900473ffffffffffffffffffffffffffffffffffffffff1673ffffffffffffffffffffffffffffffffffffffff166399715c3c896040518263ffffffff1660e01b8152600401808273ffffffffffffffffffffffffffffffffffffffff1673ffffffffffffffffffffffffffffffffffffffff16815260200191505060206040518083038186803b158015611c9d57600080fd5b505afa158015611cb1573d6000803e3d6000fd5b505050506040513d6020811015611cc757600080fd5b81019080805190602001909291905050509050611ce5813385611e97565b6001955050505050509392505050565b6000611d3783836040518060400160405280601a81526020017f536166654d6174683a206469766973696f6e206279207a65726f000000000000815250612090565b905092915050565b600080828401905083811015611dbd576040517f08c379a000000000000000000000000000000000000000000000000000000000815260040180806020018281038252601b8152602001807f536166654d6174683a206164646974696f6e206f766572666c6f77000000000081525060200191505060405180910390fd5b8091505092915050565b600080831415611dda5760009050611e47565b6000828402905082848281611deb57fe5b0414611e42576040517f08c379a00000000000000000000000000000000000000000000000000000000081526004018080602001828103825260218152602001806122606021913960400191505060405180910390fd5b809150505b92915050565b6000611e8f83836040518060400160405280601e81526020017f536166654d6174683a207375627472616374696f6e206f766572666c6f770000815250612156565b905092915050565b600060608473ffffffffffffffffffffffffffffffffffffffff1663a9059cbb8585604051602401808373ffffffffffffffffffffffffffffffffffffffff1673ffffffffffffffffffffffffffffffffffffffff168152602001828152602001925050506040516020818303038152906040529060e01b6020820180517bffffffffffffffffffffffffffffffffffffffffffffffffffffffff83818316178352505050506040518082805190602001908083835b60208310611f705780518252602082019150602081019050602083039250611f4d565b6001836020036101000a0380198251168184511680821785525050505050509050019150506000604051808303816000865af19150503d8060008114611fd2576040519150601f19603f3d011682016040523d82523d6000602084013e611fd7565b606091505b50915091508180156120175750600081511480612016575080806020019051602081101561200457600080fd5b81019080805190602001909291905050505b5b612089576040517f08c379a000000000000000000000000000000000000000000000000000000000815260040180806020018281038252601b8152602001807f47616d6548656c7065723a205452414e534645525f4641494c4544000000000081525060200191505060405180910390fd5b5050505050565b6000808311829061213c576040517f08c379a00000000000000000000000000000000000000000000000000000000081526004018080602001828103825283818151815260200191508051906020019080838360005b838110156121015780820151818401526020810190506120e6565b50505050905090810190601f16801561212e5780820380516001836020036101000a031916815260200191505b509250505060405180910390fd5b50600083858161214857fe5b049050809150509392505050565b6000838311158290612203576040517f08c379a00000000000000000000000000000000000000000000000000000000081526004018080602001828103825283818151815260200191508051906020019080838360005b838110156121c85780820151818401526020810190506121ad565b50505050905090810190601f1680156121f55780820380516001836020036101000a031916815260200191505b509250505060405180910390fd5b506000838503905080915050939250505056fe4f776e61626c653a206e6577206f776e657220697320746865207a65726f2061646472657373474c58526f757465723a2047414d455f4558545f544f4b454e5f4e4f545f4d41544348536166654d6174683a206d756c7469706c69636174696f6e206f766572666c6f77474c58526f757465723a2047414d455f5550444154455f524553554c545f4641494c4544474c58526f757465723a204355525f555345525f434f554e545f49535f5a45524fa2646970667358221220ff6b1d7b02d9b625d785a3087138d4f22029d080ce1f441cc590244b0f64c4d164736f6c63430006020033",
  "source": "pragma solidity ^0.6.0;\n\nimport \"@openzeppelin/contracts/access/Ownable.sol\";\n\nimport \"./interface/IGLXRouter.sol\";\nimport \"./interface/IGLXFactory.sol\";\nimport \"./interface/IGLXGame.sol\";\n\nimport \"./library/GLXHelper.sol\";\n\ncontract GLXRouter is Ownable {\n\n    using SafeMath for uint256;\n\n    address public factory;\n\n\n    constructor(address _factory) public {\n        require(_factory != address(0), 'GLXRouter: ADDRESS_NULL');\n\n        factory = _factory;\n    }\n\n    modifier validGame(address game) {\n        require(game != address(0), 'GLXRouter: GAME_INVALID');\n        require(IGLXFactory(factory).getGameExtToken(game) == address(0), 'GLXRouter: GAME_NOT_EXIST');\n        _;\n    }\n\n    // \n    function bet(\n        address game,\n        bool direction,\n        uint256 amount\n    ) external validGame(game) returns (bool) {\n        address extToken = IGLXFactory(factory).getGameExtToken(game);\n        require( extToken != address(0), 'GLXRouter: GAME_EXT_TOKEN_NOT_MATCH');\n\n        address intToken = IGLXFactory(factory).getIntToken(extToken);\n        require(intToken != address(0), 'GLXRouter: INT_TOKEN_NOT_EXIST');\n\n\n        //token game\n        GLXHelper.safeTransferFrom(extToken, msg.sender, game, amount);\n\n        //game  token defi\n        require(IGLXGame(game).bet(msg.sender, direction, amount), 'GLXRouter: GAME_BET_FAILED');\n\n\n\n        //  70% ,30%pool\n        _mint(game, intToken, amount);\n\n        return true;\n    }\n\n    //  70% ,30%pool\n    function _mint(address game, address intToken, uint256 amount) internal returns (bool) {\n        //\n        uint256 curUserCount = IGLXGame(game).getCurUserCount();\n        require(curUserCount > 0, 'GLXRouter: CUR_USER_COUNT_IS_ZERO');\n\n\n        uint256 totalMintAmount = amount.div( (uint256(1).add(curUserCount.div(uint256(10))) ));\n        uint256 userMintAmount = amount.mul(uint256(70));\n        uint256 liquidMintAmount = totalMintAmount.sub(userMintAmount);\n\n        GLXHelper.safeTransfer(intToken, msg.sender, userMintAmount);\n\n        address liquidPool = IGLXFactory(factory).getLiquidPool(intToken);\n        GLXHelper.safeTransfer(liquidPool, msg.sender, userMintAmount);\n\n\n        return true;\n    }\n\n    // \n    function getIncome(address game) external validGame(game) returns (bool) {\n\n        require(IGLXGame(game).getIncome(msg.sender), 'GLXRouter: GAME_RECEIVE_FAILED');\n\n        return true;\n    }\n\n    // \n    function updateGameResult(address game) external onlyOwner validGame(game) returns (bool) {\n        require(IGLXGame(game).updateGameResult(), 'GLXRouter: GAME_UPDATE_RESULT_FAILED');\n\n        return true;\n    }\n    // oracle\n\n    // oracle;2true 1false \n    function updateGameResultByOracle(address game,uint8 gameResult) external onlyOwner validGame(game) returns (bool) {\n\n        require(IGLXGame(game).updateGameResultByOracle(gameResult), 'GLXRouter: GAME_ORACLE_FAILED');\n\n        return true;\n    }\n\n}\n",
  "sourcePath": "/Users/xuyulin/code/xuyulinnn/glxdefi/glxdefi-core/contracts/GLXRouter.sol",
  "compiler": {
    "name": "solc",
    "version": "0.6.2+commit.bacdbe57.Emscripten.clang"
  },
  "schemaVersion": "3.2.3",
  "updatedAt": "2020-08-07T16:48:25.728Z",
  "networkType": "ethereum",
  "devdoc": {
    "methods": {
      "owner()": {
        "details": "Returns the address of the current owner."
      },
      "renounceOwnership()": {
        "details": "Leaves the contract without owner. It will not be possible to call `onlyOwner` functions anymore. Can only be called by the current owner.     * NOTE: Renouncing ownership will leave the contract without an owner, thereby removing any functionality that is only available to the owner."
      },
      "transferOwnership(address)": {
        "details": "Transfers ownership of the contract to a new account (`newOwner`). Can only be called by the current owner."
      }
    }
  },
  "userdoc": {
    "methods": {}
  }
}