{
  "contractName": "GLXRouter",
  "abi": [
    {
      "inputs": [
        {
          "internalType": "address",
          "name": "_factory",
          "type": "address"
        }
      ],
      "stateMutability": "nonpayable",
      "type": "constructor"
    },
    {
      "anonymous": false,
      "inputs": [
        {
          "indexed": true,
          "internalType": "address",
          "name": "previousOwner",
          "type": "address"
        },
        {
          "indexed": true,
          "internalType": "address",
          "name": "newOwner",
          "type": "address"
        }
      ],
      "name": "OwnershipTransferred",
      "type": "event"
    },
    {
      "inputs": [],
      "name": "LIQUID_MINT_RATE",
      "outputs": [
        {
          "internalType": "uint256",
          "name": "",
          "type": "uint256"
        }
      ],
      "stateMutability": "view",
      "type": "function",
      "constant": true
    },
    {
      "inputs": [],
      "name": "factory",
      "outputs": [
        {
          "internalType": "address",
          "name": "",
          "type": "address"
        }
      ],
      "stateMutability": "view",
      "type": "function",
      "constant": true
    },
    {
      "inputs": [],
      "name": "owner",
      "outputs": [
        {
          "internalType": "address",
          "name": "",
          "type": "address"
        }
      ],
      "stateMutability": "view",
      "type": "function",
      "constant": true
    },
    {
      "inputs": [],
      "name": "renounceOwnership",
      "outputs": [],
      "stateMutability": "nonpayable",
      "type": "function"
    },
    {
      "inputs": [
        {
          "internalType": "address",
          "name": "newOwner",
          "type": "address"
        }
      ],
      "name": "transferOwnership",
      "outputs": [],
      "stateMutability": "nonpayable",
      "type": "function"
    },
    {
      "inputs": [
        {
          "internalType": "address",
          "name": "game",
          "type": "address"
        },
        {
          "internalType": "bool",
          "name": "direction",
          "type": "bool"
        },
        {
          "internalType": "uint256",
          "name": "amount",
          "type": "uint256"
        }
      ],
      "name": "bet",
      "outputs": [
        {
          "internalType": "bool",
          "name": "",
          "type": "bool"
        }
      ],
      "stateMutability": "nonpayable",
      "type": "function"
    },
    {
      "inputs": [
        {
          "internalType": "address",
          "name": "game",
          "type": "address"
        }
      ],
      "name": "getIncome",
      "outputs": [
        {
          "internalType": "bool",
          "name": "",
          "type": "bool"
        }
      ],
      "stateMutability": "nonpayable",
      "type": "function"
    },
    {
      "inputs": [
        {
          "internalType": "address",
          "name": "game",
          "type": "address"
        }
      ],
      "name": "updateGameResult",
      "outputs": [
        {
          "internalType": "bool",
          "name": "",
          "type": "bool"
        }
      ],
      "stateMutability": "nonpayable",
      "type": "function"
    },
    {
      "inputs": [
        {
          "internalType": "address",
          "name": "game",
          "type": "address"
        },
        {
          "internalType": "uint8",
          "name": "gameResult",
          "type": "uint8"
        }
      ],
      "name": "updateGameResultByOracle",
      "outputs": [
        {
          "internalType": "bool",
          "name": "",
          "type": "bool"
        }
      ],
      "stateMutability": "nonpayable",
      "type": "function"
    }
  ],
  "bytecode": "0x608060405234801561001057600080fd5b50604051620024f7380380620024f78339818101604052602081101561003557600080fd5b810190808051906020019092919050505060006100566101de60201b60201c565b9050806000806101000a81548173ffffffffffffffffffffffffffffffffffffffff021916908373ffffffffffffffffffffffffffffffffffffffff1602179055508073ffffffffffffffffffffffffffffffffffffffff16600073ffffffffffffffffffffffffffffffffffffffff167f8be0079c531659141344cd1fd0a4f28419497f9722a3daafe3b4186f6b6457e060405160405180910390a350600073ffffffffffffffffffffffffffffffffffffffff168173ffffffffffffffffffffffffffffffffffffffff161415610197576040517f08c379a00000000000000000000000000000000000000000000000000000000081526004018080602001828103825260178152602001807f474c58526f757465723a20414444524553535f4e554c4c00000000000000000081525060200191505060405180910390fd5b80600160006101000a81548173ffffffffffffffffffffffffffffffffffffffff021916908373ffffffffffffffffffffffffffffffffffffffff160217905550506101e6565b600033905090565b61230180620001f66000396000f3fe608060405234801561001057600080fd5b50600436106100935760003560e01c8063b670445911610066578063b670445914610166578063c45a0155146101cf578063e22c612814610219578063e43cceb614610275578063f2fde38b146102e757610093565b8063715018a6146100985780638da5cb5b146100a257806390bece20146100ec578063b00442c814610148575b600080fd5b6100a061032b565b005b6100aa6104b3565b604051808273ffffffffffffffffffffffffffffffffffffffff1673ffffffffffffffffffffffffffffffffffffffff16815260200191505060405180910390f35b61012e6004803603602081101561010257600080fd5b81019080803573ffffffffffffffffffffffffffffffffffffffff1690602001909291905050506104dc565b604051808215151515815260200191505060405180910390f35b6101506107e0565b6040518082815260200191505060405180910390f35b6101b56004803603604081101561017c57600080fd5b81019080803573ffffffffffffffffffffffffffffffffffffffff169060200190929190803560ff1690602001909291905050506107e5565b604051808215151515815260200191505060405180910390f35b6101d7610be1565b604051808273ffffffffffffffffffffffffffffffffffffffff1673ffffffffffffffffffffffffffffffffffffffff16815260200191505060405180910390f35b61025b6004803603602081101561022f57600080fd5b81019080803573ffffffffffffffffffffffffffffffffffffffff169060200190929190505050610c07565b604051808215151515815260200191505060405180910390f35b6102cd6004803603606081101561028b57600080fd5b81019080803573ffffffffffffffffffffffffffffffffffffffff16906020019092919080351515906020019092919080359060200190929190505050610f5f565b604051808215151515815260200191505060405180910390f35b610329600480360360208110156102fd57600080fd5b81019080803573ffffffffffffffffffffffffffffffffffffffff1690602001909291905050506115cc565b005b6103336117d9565b73ffffffffffffffffffffffffffffffffffffffff166000809054906101000a900473ffffffffffffffffffffffffffffffffffffffff1673ffffffffffffffffffffffffffffffffffffffff16146103f4576040517f08c379a00000000000000000000000000000000000000000000000000000000081526004018080602001828103825260208152602001807f4f776e61626c653a2063616c6c6572206973206e6f7420746865206f776e657281525060200191505060405180910390fd5b600073ffffffffffffffffffffffffffffffffffffffff166000809054906101000a900473ffffffffffffffffffffffffffffffffffffffff1673ffffffffffffffffffffffffffffffffffffffff167f8be0079c531659141344cd1fd0a4f28419497f9722a3daafe3b4186f6b6457e060405160405180910390a360008060006101000a81548173ffffffffffffffffffffffffffffffffffffffff021916908373ffffffffffffffffffffffffffffffffffffffff160217905550565b60008060009054906101000a900473ffffffffffffffffffffffffffffffffffffffff16905090565b600081600073ffffffffffffffffffffffffffffffffffffffff168173ffffffffffffffffffffffffffffffffffffffff161415610582576040517f08c379a00000000000000000000000000000000000000000000000000000000081526004018080602001828103825260178152602001807f474c58526f757465723a2047414d455f494e56414c494400000000000000000081525060200191505060405180910390fd5b600073ffffffffffffffffffffffffffffffffffffffff16600160009054906101000a900473ffffffffffffffffffffffffffffffffffffffff1673ffffffffffffffffffffffffffffffffffffffff16638be62fba836040518263ffffffff1660e01b8152600401808273ffffffffffffffffffffffffffffffffffffffff1673ffffffffffffffffffffffffffffffffffffffff16815260200191505060206040518083038186803b15801561063957600080fd5b505afa15801561064d573d6000803e3d6000fd5b505050506040513d602081101561066357600080fd5b810190808051906020019092919050505073ffffffffffffffffffffffffffffffffffffffff1614156106fe576040517f08c379a00000000000000000000000000000000000000000000000000000000081526004018080602001828103825260198152602001807f474c58526f757465723a2047414d455f4e4f545f45584953540000000000000081525060200191505060405180910390fd5b8273ffffffffffffffffffffffffffffffffffffffff16635d2ad4e86040518163ffffffff1660e01b8152600401602060405180830381600087803b15801561074657600080fd5b505af115801561075a573d6000803e3d6000fd5b505050506040513d602081101561077057600080fd5b81019080805190602001909291905050506107d6576040517f08c379a00000000000000000000000000000000000000000000000000000000081526004018080602001828103825260248152602001806122a86024913960400191505060405180910390fd5b6001915050919050565b604681565b60006107ef6117d9565b73ffffffffffffffffffffffffffffffffffffffff166000809054906101000a900473ffffffffffffffffffffffffffffffffffffffff1673ffffffffffffffffffffffffffffffffffffffff16146108b0576040517f08c379a00000000000000000000000000000000000000000000000000000000081526004018080602001828103825260208152602001807f4f776e61626c653a2063616c6c6572206973206e6f7420746865206f776e657281525060200191505060405180910390fd5b82600073ffffffffffffffffffffffffffffffffffffffff168173ffffffffffffffffffffffffffffffffffffffff161415610954576040517f08c379a00000000000000000000000000000000000000000000000000000000081526004018080602001828103825260178152602001807f474c58526f757465723a2047414d455f494e56414c494400000000000000000081525060200191505060405180910390fd5b600073ffffffffffffffffffffffffffffffffffffffff16600160009054906101000a900473ffffffffffffffffffffffffffffffffffffffff1673ffffffffffffffffffffffffffffffffffffffff16638be62fba836040518263ffffffff1660e01b8152600401808273ffffffffffffffffffffffffffffffffffffffff1673ffffffffffffffffffffffffffffffffffffffff16815260200191505060206040518083038186803b158015610a0b57600080fd5b505afa158015610a1f573d6000803e3d6000fd5b505050506040513d6020811015610a3557600080fd5b810190808051906020019092919050505073ffffffffffffffffffffffffffffffffffffffff161415610ad0576040517f08c379a00000000000000000000000000000000000000000000000000000000081526004018080602001828103825260198152602001807f474c58526f757465723a2047414d455f4e4f545f45584953540000000000000081525060200191505060405180910390fd5b8373ffffffffffffffffffffffffffffffffffffffff1663caa9aa70846040518263ffffffff1660e01b8152600401808260ff1660ff168152602001915050602060405180830381600087803b158015610b2957600080fd5b505af1158015610b3d573d6000803e3d6000fd5b505050506040513d6020811015610b5357600080fd5b8101908080519060200190929190505050610bd6576040517f08c379a000000000000000000000000000000000000000000000000000000000815260040180806020018281038252601d8152602001807f474c58526f757465723a2047414d455f4f5241434c455f4641494c454400000081525060200191505060405180910390fd5b600191505092915050565b600160009054906101000a900473ffffffffffffffffffffffffffffffffffffffff1681565b600081600073ffffffffffffffffffffffffffffffffffffffff168173ffffffffffffffffffffffffffffffffffffffff161415610cad576040517f08c379a00000000000000000000000000000000000000000000000000000000081526004018080602001828103825260178152602001807f474c58526f757465723a2047414d455f494e56414c494400000000000000000081525060200191505060405180910390fd5b600073ffffffffffffffffffffffffffffffffffffffff16600160009054906101000a900473ffffffffffffffffffffffffffffffffffffffff1673ffffffffffffffffffffffffffffffffffffffff16638be62fba836040518263ffffffff1660e01b8152600401808273ffffffffffffffffffffffffffffffffffffffff1673ffffffffffffffffffffffffffffffffffffffff16815260200191505060206040518083038186803b158015610d6457600080fd5b505afa158015610d78573d6000803e3d6000fd5b505050506040513d6020811015610d8e57600080fd5b810190808051906020019092919050505073ffffffffffffffffffffffffffffffffffffffff161415610e29576040517f08c379a00000000000000000000000000000000000000000000000000000000081526004018080602001828103825260198152602001807f474c58526f757465723a2047414d455f4e4f545f45584953540000000000000081525060200191505060405180910390fd5b8273ffffffffffffffffffffffffffffffffffffffff1663e22c6128336040518263ffffffff1660e01b8152600401808273ffffffffffffffffffffffffffffffffffffffff1673ffffffffffffffffffffffffffffffffffffffff168152602001915050602060405180830381600087803b158015610ea857600080fd5b505af1158015610ebc573d6000803e3d6000fd5b505050506040513d6020811015610ed257600080fd5b8101908080519060200190929190505050610f55576040517f08c379a000000000000000000000000000000000000000000000000000000000815260040180806020018281038252601e8152602001807f474c58526f757465723a2047414d455f524543454956455f4641494c4544000081525060200191505060405180910390fd5b6001915050919050565b600083600073ffffffffffffffffffffffffffffffffffffffff168173ffffffffffffffffffffffffffffffffffffffff161415611005576040517f08c379a00000000000000000000000000000000000000000000000000000000081526004018080602001828103825260178152602001807f474c58526f757465723a2047414d455f494e56414c494400000000000000000081525060200191505060405180910390fd5b600073ffffffffffffffffffffffffffffffffffffffff16600160009054906101000a900473ffffffffffffffffffffffffffffffffffffffff1673ffffffffffffffffffffffffffffffffffffffff16638be62fba836040518263ffffffff1660e01b8152600401808273ffffffffffffffffffffffffffffffffffffffff1673ffffffffffffffffffffffffffffffffffffffff16815260200191505060206040518083038186803b1580156110bc57600080fd5b505afa1580156110d0573d6000803e3d6000fd5b505050506040513d60208110156110e657600080fd5b810190808051906020019092919050505073ffffffffffffffffffffffffffffffffffffffff161415611181576040517f08c379a00000000000000000000000000000000000000000000000000000000081526004018080602001828103825260198152602001807f474c58526f757465723a2047414d455f4e4f545f45584953540000000000000081525060200191505060405180910390fd5b6000600160009054906101000a900473ffffffffffffffffffffffffffffffffffffffff1673ffffffffffffffffffffffffffffffffffffffff16638be62fba876040518263ffffffff1660e01b8152600401808273ffffffffffffffffffffffffffffffffffffffff1673ffffffffffffffffffffffffffffffffffffffff16815260200191505060206040518083038186803b15801561122257600080fd5b505afa158015611236573d6000803e3d6000fd5b505050506040513d602081101561124c57600080fd5b81019080805190602001909291905050509050600073ffffffffffffffffffffffffffffffffffffffff168173ffffffffffffffffffffffffffffffffffffffff1614156112e5576040517f08c379a00000000000000000000000000000000000000000000000000000000081526004018080602001828103825260238152602001806122646023913960400191505060405180910390fd5b6000600160009054906101000a900473ffffffffffffffffffffffffffffffffffffffff1673ffffffffffffffffffffffffffffffffffffffff16636f4ca3af836040518263ffffffff1660e01b8152600401808273ffffffffffffffffffffffffffffffffffffffff1673ffffffffffffffffffffffffffffffffffffffff16815260200191505060206040518083038186803b15801561138657600080fd5b505afa15801561139a573d6000803e3d6000fd5b505050506040513d60208110156113b057600080fd5b81019080805190602001909291905050509050600073ffffffffffffffffffffffffffffffffffffffff168173ffffffffffffffffffffffffffffffffffffffff161415611466576040517f08c379a000000000000000000000000000000000000000000000000000000000815260040180806020018281038252601e8152602001807f474c58526f757465723a20494e545f544f4b454e5f4e4f545f4558495354000081525060200191505060405180910390fd5b611472823389886117e1565b61147d878287611a0f565b508673ffffffffffffffffffffffffffffffffffffffff1663e43cceb63388886040518463ffffffff1660e01b8152600401808473ffffffffffffffffffffffffffffffffffffffff1673ffffffffffffffffffffffffffffffffffffffff168152602001831515151581526020018281526020019350505050602060405180830381600087803b15801561151157600080fd5b505af1158015611525573d6000803e3d6000fd5b505050506040513d602081101561153b57600080fd5b81019080805190602001909291905050506115be576040517f08c379a000000000000000000000000000000000000000000000000000000000815260040180806020018281038252601a8152602001807f474c58526f757465723a2047414d455f4245545f4641494c454400000000000081525060200191505060405180910390fd5b600193505050509392505050565b6115d46117d9565b73ffffffffffffffffffffffffffffffffffffffff166000809054906101000a900473ffffffffffffffffffffffffffffffffffffffff1673ffffffffffffffffffffffffffffffffffffffff1614611695576040517f08c379a00000000000000000000000000000000000000000000000000000000081526004018080602001828103825260208152602001807f4f776e61626c653a2063616c6c6572206973206e6f7420746865206f776e657281525060200191505060405180910390fd5b600073ffffffffffffffffffffffffffffffffffffffff168173ffffffffffffffffffffffffffffffffffffffff16141561171b576040517f08c379a000000000000000000000000000000000000000000000000000000000815260040180806020018281038252602681526020018061223e6026913960400191505060405180910390fd5b8073ffffffffffffffffffffffffffffffffffffffff166000809054906101000a900473ffffffffffffffffffffffffffffffffffffffff1673ffffffffffffffffffffffffffffffffffffffff167f8be0079c531659141344cd1fd0a4f28419497f9722a3daafe3b4186f6b6457e060405160405180910390a3806000806101000a81548173ffffffffffffffffffffffffffffffffffffffff021916908373ffffffffffffffffffffffffffffffffffffffff16021790555050565b600033905090565b600060608573ffffffffffffffffffffffffffffffffffffffff166323b872dd868686604051602401808473ffffffffffffffffffffffffffffffffffffffff1673ffffffffffffffffffffffffffffffffffffffff1681526020018373ffffffffffffffffffffffffffffffffffffffff1673ffffffffffffffffffffffffffffffffffffffff16815260200182815260200193505050506040516020818303038152906040529060e01b6020820180517bffffffffffffffffffffffffffffffffffffffffffffffffffffffff83818316178352505050506040518082805190602001908083835b602083106118ee57805182526020820191506020810190506020830392506118cb565b6001836020036101000a0380198251168184511680821785525050505050509050019150506000604051808303816000865af19150503d8060008114611950576040519150601f19603f3d011682016040523d82523d6000602084013e611955565b606091505b50915091508180156119955750600081511480611994575080806020019051602081101561198257600080fd5b81019080805190602001909291905050505b5b611a07576040517f08c379a00000000000000000000000000000000000000000000000000000000081526004018080602001828103825260208152602001807f47616d6548656c7065723a205452414e534645525f46524f4d5f4641494c454481525060200191505060405180910390fd5b505050505050565b6000808473ffffffffffffffffffffffffffffffffffffffff16634d830d6f6040518163ffffffff1660e01b815260040160206040518083038186803b158015611a5857600080fd5b505afa158015611a6c573d6000803e3d6000fd5b505050506040513d6020811015611a8257600080fd5b810190808051906020019092919050505090506000600160009054906101000a900473ffffffffffffffffffffffffffffffffffffffff1673ffffffffffffffffffffffffffffffffffffffff16634b77f635866040518263ffffffff1660e01b8152600401808273ffffffffffffffffffffffffffffffffffffffff1673ffffffffffffffffffffffffffffffffffffffff16815260200191505060206040518083038186803b158015611b3657600080fd5b505afa158015611b4a573d6000803e3d6000fd5b505050506040513d6020811015611b6057600080fd5b810190808051906020019092919050505090506000611bd382611bc56064611bb7611ba8611b98600a8a611d1c90919063ffffffff16565b6001611d6690919063ffffffff16565b8a611d1c90919063ffffffff16565b611dee90919063ffffffff16565b611d1c90919063ffffffff16565b90506000611bfe6064611bf0604689611dee90919063ffffffff16565b611d1c90919063ffffffff16565b90506000611c158284611e7490919063ffffffff16565b9050611c22883383611ebe565b6000600160009054906101000a900473ffffffffffffffffffffffffffffffffffffffff1673ffffffffffffffffffffffffffffffffffffffff166399715c3c8a6040518263ffffffff1660e01b8152600401808273ffffffffffffffffffffffffffffffffffffffff1673ffffffffffffffffffffffffffffffffffffffff16815260200191505060206040518083038186803b158015611cc357600080fd5b505afa158015611cd7573d6000803e3d6000fd5b505050506040513d6020811015611ced57600080fd5b81019080805190602001909291905050509050611d0b898284611ebe565b600196505050505050509392505050565b6000611d5e83836040518060400160405280601a81526020017f536166654d6174683a206469766973696f6e206279207a65726f0000000000008152506120b7565b905092915050565b600080828401905083811015611de4576040517f08c379a000000000000000000000000000000000000000000000000000000000815260040180806020018281038252601b8152602001807f536166654d6174683a206164646974696f6e206f766572666c6f77000000000081525060200191505060405180910390fd5b8091505092915050565b600080831415611e015760009050611e6e565b6000828402905082848281611e1257fe5b0414611e69576040517f08c379a00000000000000000000000000000000000000000000000000000000081526004018080602001828103825260218152602001806122876021913960400191505060405180910390fd5b809150505b92915050565b6000611eb683836040518060400160405280601e81526020017f536166654d6174683a207375627472616374696f6e206f766572666c6f77000081525061217d565b905092915050565b600060608473ffffffffffffffffffffffffffffffffffffffff166340c10f198585604051602401808373ffffffffffffffffffffffffffffffffffffffff1673ffffffffffffffffffffffffffffffffffffffff168152602001828152602001925050506040516020818303038152906040529060e01b6020820180517bffffffffffffffffffffffffffffffffffffffffffffffffffffffff83818316178352505050506040518082805190602001908083835b60208310611f975780518252602082019150602081019050602083039250611f74565b6001836020036101000a0380198251168184511680821785525050505050509050019150506000604051808303816000865af19150503d8060008114611ff9576040519150601f19603f3d011682016040523d82523d6000602084013e611ffe565b606091505b509150915081801561203e575060008151148061203d575080806020019051602081101561202b57600080fd5b81019080805190602001909291905050505b5b6120b0576040517f08c379a00000000000000000000000000000000000000000000000000000000081526004018080602001828103825260178152602001807f47616d6548656c7065723a204d494e545f4641494c454400000000000000000081525060200191505060405180910390fd5b5050505050565b60008083118290612163576040517f08c379a00000000000000000000000000000000000000000000000000000000081526004018080602001828103825283818151815260200191508051906020019080838360005b8381101561212857808201518184015260208101905061210d565b50505050905090810190601f1680156121555780820380516001836020036101000a031916815260200191505b509250505060405180910390fd5b50600083858161216f57fe5b049050809150509392505050565b600083831115829061222a576040517f08c379a00000000000000000000000000000000000000000000000000000000081526004018080602001828103825283818151815260200191508051906020019080838360005b838110156121ef5780820151818401526020810190506121d4565b50505050905090810190601f16801561221c5780820380516001836020036101000a031916815260200191505b509250505060405180910390fd5b506000838503905080915050939250505056fe4f776e61626c653a206e6577206f776e657220697320746865207a65726f2061646472657373474c58526f757465723a2047414d455f4558545f544f4b454e5f4e4f545f4d41544348536166654d6174683a206d756c7469706c69636174696f6e206f766572666c6f77474c58526f757465723a2047414d455f5550444154455f524553554c545f4641494c4544a2646970667358221220fd7f143520dde4649b682921f3984b48da0fe93c2bc5224c0e163482128f846164736f6c63430006020033",
  "source": "pragma solidity ^0.6.0;\n\nimport \"@openzeppelin/contracts/access/Ownable.sol\";\n\nimport \"./interface/IGLXRouter.sol\";\nimport \"./interface/IGLXFactory.sol\";\nimport \"./interface/IGLXGame.sol\";\n\nimport \"./library/GLXHelper.sol\";\n\ncontract GLXRouter is Ownable {\n\n    using SafeMath for uint256;\n\n\n    //30%70%\n    uint256 public constant LIQUID_MINT_RATE = 70;\n\n    address public factory;\n\n\n    constructor(address _factory) public {\n        require(_factory != address(0), 'GLXRouter: ADDRESS_NULL');\n\n        factory = _factory;\n    }\n\n    modifier validGame(address game) {\n        require(game != address(0), 'GLXRouter: GAME_INVALID');\n        require(IGLXFactory(factory).getGameExtToken(game) != address(0), 'GLXRouter: GAME_NOT_EXIST');\n        _;\n    }\n\n    // \n    function bet(\n        address game,\n        bool direction,\n        uint256 amount\n    ) external validGame(game) returns (bool) {\n        address extToken = IGLXFactory(factory).getGameExtToken(game);\n        require( extToken != address(0), 'GLXRouter: GAME_EXT_TOKEN_NOT_MATCH');\n\n        address intToken = IGLXFactory(factory).getIntToken(extToken);\n        require(intToken != address(0), 'GLXRouter: INT_TOKEN_NOT_EXIST');\n\n\n        //token game\n        GLXHelper.safeTransferFrom(extToken, msg.sender, game, amount);\n\n        //  70% ,30%pool\n        _mint(game, intToken, amount);\n\n        //game  token defi\n        require(IGLXGame(game).bet(msg.sender, direction, amount), 'GLXRouter: GAME_BET_FAILED');\n\n        return true;\n    }\n\n    //  70% ,30%pool\n    function _mint(address game, address intToken, uint256 amount) internal returns (bool) {\n        //\n        uint256 curUserCount = IGLXGame(game).getCurUserCount();\n\n        uint256 discount = IGLXFactory(factory).getMintDiscount(intToken);\n        //epochepochepoch\n        uint256 totalMintAmount = amount.div( (uint256(1).add(curUserCount.div(uint256(10))) )).mul(uint256(100)).div(discount);\n        uint256 liquidMintAmount = amount.mul(uint256(LIQUID_MINT_RATE)).div(uint256(100));\n        uint256 userMintAmount = totalMintAmount.sub(liquidMintAmount);\n\n        GLXHelper.safeMint(intToken, msg.sender, userMintAmount);\n\n        address liquidPool = IGLXFactory(factory).getLiquidPool(intToken);\n        GLXHelper.safeMint(intToken, liquidPool, userMintAmount);\n\n\n        return true;\n    }\n\n    // \n    function getIncome(address game) external validGame(game) returns (bool) {\n\n        require(IGLXGame(game).getIncome(msg.sender), 'GLXRouter: GAME_RECEIVE_FAILED');\n\n        return true;\n    }\n\n    // \n    function updateGameResult(address game) external validGame(game) returns (bool) {\n        require(IGLXGame(game).updateGameResult(), 'GLXRouter: GAME_UPDATE_RESULT_FAILED');\n\n        return true;\n    }\n    // oracle\n\n    // oracle;2true 1false \n    function updateGameResultByOracle(address game, uint8 gameResult) external onlyOwner validGame(game) returns (bool) {\n\n        require(IGLXGame(game).updateGameResultByOracle(gameResult), 'GLXRouter: GAME_ORACLE_FAILED');\n\n        return true;\n    }\n\n}\n",
  "sourcePath": "/Users/xuyulin/code/xuyulinnn/glxdefi/glxdefi-core/contracts/GLXRouter.sol",
  "compiler": {
    "name": "solc",
    "version": "0.6.2+commit.bacdbe57.Emscripten.clang"
  },
  "schemaVersion": "3.2.3",
  "updatedAt": "2020-08-08T07:40:53.458Z",
  "networkType": "ethereum",
  "devdoc": {
    "methods": {
      "owner()": {
        "details": "Returns the address of the current owner."
      },
      "renounceOwnership()": {
        "details": "Leaves the contract without owner. It will not be possible to call `onlyOwner` functions anymore. Can only be called by the current owner.     * NOTE: Renouncing ownership will leave the contract without an owner, thereby removing any functionality that is only available to the owner."
      },
      "transferOwnership(address)": {
        "details": "Transfers ownership of the contract to a new account (`newOwner`). Can only be called by the current owner."
      }
    }
  },
  "userdoc": {
    "methods": {}
  }
}